{
  "contractName": "Accounts",
  "abi": [
    {
      "inputs": [],
      "stateMutability": "nonpayable",
      "type": "constructor"
    },
    {
      "inputs": [],
      "name": "creator",
      "outputs": [
        {
          "internalType": "address",
          "name": "",
          "type": "address"
        }
      ],
      "stateMutability": "view",
      "type": "function",
      "constant": true
    },
    {
      "inputs": [
        {
          "internalType": "address",
          "name": "account",
          "type": "address"
        },
        {
          "internalType": "uint256",
          "name": "role",
          "type": "uint256"
        }
      ],
      "name": "accountAddRole",
      "outputs": [],
      "stateMutability": "nonpayable",
      "type": "function"
    },
    {
      "inputs": [
        {
          "internalType": "address",
          "name": "account",
          "type": "address"
        },
        {
          "internalType": "uint256",
          "name": "role",
          "type": "uint256"
        }
      ],
      "name": "accountHasRole",
      "outputs": [
        {
          "internalType": "bool",
          "name": "",
          "type": "bool"
        }
      ],
      "stateMutability": "view",
      "type": "function",
      "constant": true
    }
  ],
  "bytecode": "0x608060405234801561001057600080fd5b50336000806101000a81548173ffffffffffffffffffffffffffffffffffffffff021916908373ffffffffffffffffffffffffffffffffffffffff1602179055506103e0806100606000396000f3fe608060405234801561001057600080fd5b50600436106100415760003560e01c806302d05d3f1461004657806397728f8114610064578063f52e8fd014610094575b600080fd5b61004e6100b0565b60405161005b91906102fe565b60405180910390f35b61007e600480360361007991908101906102a4565b6100d5565b60405161008b9190610319565b60405180910390f35b6100ae60048036036100a991908101906102a4565b61013d565b005b6000809054906101000a900473ffffffffffffffffffffffffffffffffffffffff1681565b6000600160008473ffffffffffffffffffffffffffffffffffffffff1673ffffffffffffffffffffffffffffffffffffffff168152602001908152602001600020600083815260200190815260200160002060009054906101000a900460ff16905092915050565b6000809054906101000a900473ffffffffffffffffffffffffffffffffffffffff1673ffffffffffffffffffffffffffffffffffffffff163373ffffffffffffffffffffffffffffffffffffffff161461019657600080fd5b60018060008473ffffffffffffffffffffffffffffffffffffffff1673ffffffffffffffffffffffffffffffffffffffff168152602001908152602001600020600083815260200190815260200160002060006101000a81548160ff0219169083151502179055506001600281111561020b57fe5b811415610276576002829080600181540180825580915050600190039060005260206000200160009091909190916101000a81548173ffffffffffffffffffffffffffffffffffffffff021916908373ffffffffffffffffffffffffffffffffffffffff1602179055505b5050565b6000813590506102898161037c565b92915050565b60008135905061029e81610393565b92915050565b600080604083850312156102b757600080fd5b60006102c58582860161027a565b92505060206102d68582860161028f565b9150509250929050565b6102e981610334565b82525050565b6102f881610346565b82525050565b600060208201905061031360008301846102e0565b92915050565b600060208201905061032e60008301846102ef565b92915050565b600061033f82610352565b9050919050565b60008115159050919050565b600073ffffffffffffffffffffffffffffffffffffffff82169050919050565b6000819050919050565b61038581610334565b811461039057600080fd5b50565b61039c81610372565b81146103a757600080fd5b5056fea2646970667358221220c4140619e2842292a73c710a490a9e63bd9832785a8e05ca6c7e3bd4c58f820064736f6c63430006000033",
  "source": "// SPDX-License-Identifier: MIT\r\npragma solidity >=0.4.21 <8.10.0;\r\npragma experimental ABIEncoderV2;\r\n\r\ncontract Accounts {\r\n    address public creator;\r\n    mapping(address => mapping(uint => bool)) accountRoles;\r\n    enum Role { Reader, Validator, Publisher }\r\n    address[] freeValidators;\r\n\r\n    constructor() public {\r\n        creator = msg.sender;\r\n    }\r\n\r\n    function accountAddRole(address account, uint role) public { //adds specified role to account\r\n        require(\r\n            msg.sender == creator\r\n        );\r\n        accountRoles[account][role] = true;\r\n\r\n        if(role == uint(Role.Validator)) {\r\n            freeValidators.push(account);\r\n        }\r\n    }\r\n\r\n    function accountHasRole(address account, uint role) public view returns (bool) { //checks whether account has specified role\r\n        return accountRoles[account][role];\r\n    }\r\n}\r\n\r\n\r\ncontract NewsFeed\r\n{\r\n    uint256 constant reportThreshold=5; //if no. of reports reaches this, validtors will be assigned\r\n    uint256 constant validatorCount=3; //no. of validators assigned to each news article for validation\r\n    uint256 constant publishingCost=2; //cost to publish an article on the app\r\n    uint256 constant readingCost=1; //cost to read an article\r\n\r\n    uint256 public newsCount=0;\r\n    enum State { Unverified, Fake, Verified }\r\n    mapping(uint256=>News) public news_feed;\r\n    string[] articleTitles; //stores only titles, for showing feed\r\n    address public creator;\r\n    mapping(address => News) public assignedArticle; //stores mapping of what articles is assigned to each validator at a given moment\r\n    address[] freeValidators; //list of validators who are idle\r\n    address[] articleStake;\r\n    mapping(address => mapping(uint => uint)) readerStake; //stores amount reader stakes on an article\r\n    Accounts accContract;\r\n\r\n\r\n    struct News {\r\n        uint256 id;\r\n        address publisher;\r\n        string title;\r\n        string description;\r\n        State news_state;\r\n        uint256 upvotes;\r\n        address[]  upvotes_address;\r\n        uint256 downvotes;\r\n        address[] downvotes_address;\r\n        address[] reporters;\r\n    }\r\n\r\n    constructor(Accounts _accContract) public { //called when contract is first created\r\n        creator = msg.sender;\r\n        accContract = _accContract;\r\n    }\r\n\r\n    function addNews (string memory _title, string memory _description) payable public { //adds a news article\r\n        require(\r\n            accContract.accountHasRole(msg.sender, uint(Accounts.Role.Publisher))\r\n        );\r\n        require(\r\n            msg.value >= publishingCost\r\n        );\r\n        newsCount++;\r\n        news_feed[newsCount]=News({\r\n            id: newsCount,\r\n            publisher: msg.sender,\r\n            title: _title,\r\n            news_state: State.Unverified,\r\n            description: _description,\r\n            upvotes: 0,\r\n            downvotes: 0,\r\n            upvotes_address: new address [](0),\r\n            downvotes_address: new address [](0),\r\n            reporters: new address [](0)\r\n        });\r\n        articleTitles.push(_title);\r\n        payable(creator).transfer(msg.value);\r\n    }\r\n\r\n    function getFeed() public returns (string[] memory) {\r\n        return articleTitles;\r\n    }\r\n\r\n    function readNews(uint256 _index) public payable returns (News memory) {\r\n        require(\r\n            accContract.accountHasRole(msg.sender, uint(Accounts.Role.Reader))\r\n        );\r\n        require(\r\n            msg.value >= readingCost\r\n        );\r\n        payable(creator).transfer(msg.value);\r\n        return news_feed[_index];\r\n    }\r\n\r\n    function report(uint256 _index) payable public { //reader reports an article as fake news\r\n        require(\r\n            accContract.accountHasRole(msg.sender, uint(Accounts.Role.Reader))\r\n        );\r\n        if(news_feed[_index].news_state != State.Unverified) return;\r\n\r\n        news_feed[_index].reporters.push(msg.sender);\r\n        if(news_feed[_index].reporters.length >= reportThreshold) {\r\n            assignValidators(_index); //assuming for now there are always enough validators\r\n        }\r\n        readerStake[msg.sender][_index] = msg.value;\r\n        payable(creator).transfer(msg.value);\r\n    }\r\n\r\n    function asvalid(address acc,uint _index) public {\r\n        assignedArticle[acc]=news_feed[_index];\r\n    }\r\n\r\n    function assignValidators(uint256 _index) private { //contract assigns validators when enough readers have reported\r\n        uint cnt = validatorCount;\r\n        while(cnt > 0) {\r\n            address currentValidator = freeValidators[freeValidators.length - 1];\r\n            freeValidators.pop();\r\n            assignedArticle[currentValidator] = news_feed[_index];\r\n            cnt--;\r\n        }\r\n    }\r\n\r\n\r\n    function addUpvote(uint256 _index) public { //validator votes as legitmiate news\r\n        require(\r\n            accContract.accountHasRole(msg.sender, uint(Accounts.Role.Validator))\r\n        );\r\n        news_feed[_index].upvotes_address.push(msg.sender);\r\n        news_feed[_index].upvotes++;\r\n\r\n        delete assignedArticle[msg.sender];\r\n        freeValidators.push(msg.sender);\r\n\r\n        if(news_feed[_index].upvotes + news_feed[_index].downvotes == validatorCount) { decideState(_index); }\r\n    }\r\n\r\n    function addDownvote(uint256 _index) public { //validator votes as fake news\r\n        require(\r\n            accContract.accountHasRole(msg.sender, uint(Accounts.Role.Validator))\r\n        );\r\n        news_feed[_index].downvotes_address.push(msg.sender);\r\n        news_feed[_index].downvotes++;\r\n\r\n        delete assignedArticle[msg.sender];\r\n        freeValidators.push(msg.sender);\r\n\r\n        if(news_feed[_index].upvotes + news_feed[_index].downvotes == validatorCount) { decideState(_index); }\r\n    }\r\n\r\n    function decideState(uint256 _index) private { //decides the state once all validators have voted\r\n        if(news_feed[_index].upvotes > news_feed[_index].downvotes) {\r\n            news_feed[_index].news_state = State.Verified;\r\n        }\r\n        else {\r\n            news_feed[_index].news_state = State.Fake;\r\n        }\r\n    }\r\n}\r\n\r\n\r\n",
  "sourcePath": "C:\\Users\\Asus\\Desktop\\Hack36\\Hack36_2022\\contracts\\NewsFeed.sol",
  "compiler": {
    "name": "solc",
    "version": "0.6.0+commit.26b70077.Emscripten.clang"
  },
  "schemaVersion": "3.4.7",
  "updatedAt": "2022-04-23T17:08:25.875Z",
  "networkType": "ethereum",
  "devdoc": {
    "methods": {}
  },
  "userdoc": {
    "methods": {}
  }
}