{
  "contractName": "NewsFeed",
  "abi": [
    {
      "inputs": [
        {
          "internalType": "contract Accounts",
          "name": "_accContract",
          "type": "address"
        }
      ],
      "stateMutability": "nonpayable",
      "type": "constructor"
    },
    {
      "inputs": [
        {
          "internalType": "address",
          "name": "",
          "type": "address"
        }
      ],
      "name": "assignedArticle",
      "outputs": [
        {
          "internalType": "uint256",
          "name": "id",
          "type": "uint256"
        },
        {
          "internalType": "address",
          "name": "publisher",
          "type": "address"
        },
        {
          "internalType": "string",
          "name": "title",
          "type": "string"
        },
        {
          "internalType": "string",
          "name": "description",
          "type": "string"
        },
        {
          "internalType": "enum NewsFeed.State",
          "name": "news_state",
          "type": "uint8"
        },
        {
          "internalType": "uint256",
          "name": "upvotes",
          "type": "uint256"
        },
        {
          "internalType": "uint256",
          "name": "downvotes",
          "type": "uint256"
        }
      ],
      "stateMutability": "view",
      "type": "function",
      "constant": true
    },
    {
      "inputs": [],
      "name": "creator",
      "outputs": [
        {
          "internalType": "address",
          "name": "",
          "type": "address"
        }
      ],
      "stateMutability": "view",
      "type": "function",
      "constant": true
    },
    {
      "inputs": [],
      "name": "newsCount",
      "outputs": [
        {
          "internalType": "uint256",
          "name": "",
          "type": "uint256"
        }
      ],
      "stateMutability": "view",
      "type": "function",
      "constant": true
    },
    {
      "inputs": [
        {
          "internalType": "uint256",
          "name": "",
          "type": "uint256"
        }
      ],
      "name": "news_feed",
      "outputs": [
        {
          "internalType": "uint256",
          "name": "id",
          "type": "uint256"
        },
        {
          "internalType": "address",
          "name": "publisher",
          "type": "address"
        },
        {
          "internalType": "string",
          "name": "title",
          "type": "string"
        },
        {
          "internalType": "string",
          "name": "description",
          "type": "string"
        },
        {
          "internalType": "enum NewsFeed.State",
          "name": "news_state",
          "type": "uint8"
        },
        {
          "internalType": "uint256",
          "name": "upvotes",
          "type": "uint256"
        },
        {
          "internalType": "uint256",
          "name": "downvotes",
          "type": "uint256"
        }
      ],
      "stateMutability": "view",
      "type": "function",
      "constant": true
    },
    {
      "inputs": [
        {
          "internalType": "string",
          "name": "_title",
          "type": "string"
        },
        {
          "internalType": "string",
          "name": "_description",
          "type": "string"
        }
      ],
      "name": "addNews",
      "outputs": [],
      "stateMutability": "payable",
      "type": "function",
      "payable": true
    },
    {
      "inputs": [],
      "name": "getFeed",
      "outputs": [
        {
          "internalType": "string[]",
          "name": "",
          "type": "string[]"
        }
      ],
      "stateMutability": "nonpayable",
      "type": "function"
    },
    {
      "inputs": [
        {
          "internalType": "uint256",
          "name": "_index",
          "type": "uint256"
        }
      ],
      "name": "readNews",
      "outputs": [
        {
          "components": [
            {
              "internalType": "uint256",
              "name": "id",
              "type": "uint256"
            },
            {
              "internalType": "address",
              "name": "publisher",
              "type": "address"
            },
            {
              "internalType": "string",
              "name": "title",
              "type": "string"
            },
            {
              "internalType": "string",
              "name": "description",
              "type": "string"
            },
            {
              "internalType": "enum NewsFeed.State",
              "name": "news_state",
              "type": "uint8"
            },
            {
              "internalType": "uint256",
              "name": "upvotes",
              "type": "uint256"
            },
            {
              "internalType": "address[]",
              "name": "upvotes_address",
              "type": "address[]"
            },
            {
              "internalType": "uint256",
              "name": "downvotes",
              "type": "uint256"
            },
            {
              "internalType": "address[]",
              "name": "downvotes_address",
              "type": "address[]"
            },
            {
              "internalType": "address[]",
              "name": "reporters",
              "type": "address[]"
            }
          ],
          "internalType": "struct NewsFeed.News",
          "name": "",
          "type": "tuple"
        }
      ],
      "stateMutability": "payable",
      "type": "function",
      "payable": true
    },
    {
      "inputs": [
        {
          "internalType": "uint256",
          "name": "_index",
          "type": "uint256"
        }
      ],
      "name": "report",
      "outputs": [],
      "stateMutability": "payable",
      "type": "function",
      "payable": true
    },
    {
      "inputs": [
        {
          "internalType": "address",
          "name": "acc",
          "type": "address"
        },
        {
          "internalType": "uint256",
          "name": "_index",
          "type": "uint256"
        }
      ],
      "name": "asvalid",
      "outputs": [],
      "stateMutability": "nonpayable",
      "type": "function"
    },
    {
      "inputs": [
        {
          "internalType": "uint256",
          "name": "_index",
          "type": "uint256"
        }
      ],
      "name": "addUpvote",
      "outputs": [],
      "stateMutability": "nonpayable",
      "type": "function"
    },
    {
      "inputs": [
        {
          "internalType": "uint256",
          "name": "_index",
          "type": "uint256"
        }
      ],
      "name": "addDownvote",
      "outputs": [],
      "stateMutability": "nonpayable",
      "type": "function"
    }
  ],
  "bytecode": "0x6080604052600080553480156200001557600080fd5b50604051620029b1380380620029b183398181016040526200003b9190810190620000db565b33600360006101000a81548173ffffffffffffffffffffffffffffffffffffffff021916908373ffffffffffffffffffffffffffffffffffffffff16021790555080600860006101000a81548173ffffffffffffffffffffffffffffffffffffffff021916908373ffffffffffffffffffffffffffffffffffffffff1602179055505062000169565b600081519050620000d5816200014f565b92915050565b600060208284031215620000ee57600080fd5b6000620000fe84828501620000c4565b91505092915050565b600062000114826200012f565b9050919050565b6000620001288262000107565b9050919050565b600073ffffffffffffffffffffffffffffffffffffffff82169050919050565b6200015a816200011b565b81146200016657600080fd5b50565b61283880620001796000396000f3fe60806040526004361061009c5760003560e01c80639981d6d3116100645780639981d6d314610170578063a4a5da681461019b578063dbadb1d1146101c4578063e4f65176146101ef578063f1de9ea41461021f578063f30399f3146102485761009c565b806301c60907146100a157806302d05d3f146100ca5780631ae00f8f146100f557806380ec938e14610138578063969b1cdb14610154575b600080fd5b3480156100ad57600080fd5b506100c860048036036100c391908101906121a9565b61028b565b005b3480156100d657600080fd5b506100df610576565b6040516100ec91906124a2565b60405180910390f35b34801561010157600080fd5b5061011c600480360361011791908101906120af565b61059c565b60405161012f9796959493929190612545565b60405180910390f35b610152600480360361014d919081019061213d565b61073b565b005b61016e600480360361016991908101906121a9565b610af8565b005b34801561017c57600080fd5b50610185610d64565b604051610192919061252a565b60405180910390f35b3480156101a757600080fd5b506101c260048036036101bd91908101906120d8565b610d6a565b005b3480156101d057600080fd5b506101d9610f13565b6040516101e691906124e6565b60405180910390f35b610209600480360361020491908101906121a9565b610ffc565b6040516102169190612508565b60405180910390f35b34801561022b57600080fd5b50610246600480360361024191908101906121a9565b6114f2565b005b34801561025457600080fd5b5061026f600480360361026a91908101906121a9565b6117dd565b6040516102829796959493929190612545565b60405180910390f35b600860009054906101000a900473ffffffffffffffffffffffffffffffffffffffff1673ffffffffffffffffffffffffffffffffffffffff166397728f8133600160028111156102d757fe5b6040518363ffffffff1660e01b81526004016102f49291906124bd565b60206040518083038186803b15801561030c57600080fd5b505afa158015610320573d6000803e3d6000fd5b505050506040513d601f19601f820116820180604052506103449190810190612114565b61034d57600080fd5b60016000828152602001908152602001600020600801339080600181540180825580915050600190039060005260206000200160009091909190916101000a81548173ffffffffffffffffffffffffffffffffffffffff021916908373ffffffffffffffffffffffffffffffffffffffff1602179055506001600082815260200190815260200160002060070160008154809291906001019190505550600460003373ffffffffffffffffffffffffffffffffffffffff1673ffffffffffffffffffffffffffffffffffffffff1681526020019081526020016000206000808201600090556001820160006101000a81549073ffffffffffffffffffffffffffffffffffffffff02191690556002820160006104699190611c74565b6003820160006104799190611c74565b6004820160006101000a81549060ff021916905560058201600090556006820160006104a59190611cbc565b60078201600090556008820160006104bd9190611cbc565b6009820160006104cd9190611cbc565b50506005339080600181540180825580915050600190039060005260206000200160009091909190916101000a81548173ffffffffffffffffffffffffffffffffffffffff021916908373ffffffffffffffffffffffffffffffffffffffff160217905550600360016000838152602001908152602001600020600701546001600084815260200190815260200160002060050154011415610573576105728161197c565b5b50565b600360009054906101000a900473ffffffffffffffffffffffffffffffffffffffff1681565b60046020528060005260406000206000915090508060000154908060010160009054906101000a900473ffffffffffffffffffffffffffffffffffffffff1690806002018054600181600116156101000203166002900480601f0160208091040260200160405190810160405280929190818152602001828054600181600116156101000203166002900480156106745780601f1061064957610100808354040283529160200191610674565b820191906000526020600020905b81548152906001019060200180831161065757829003601f168201915b505050505090806003018054600181600116156101000203166002900480601f0160208091040260200160405190810160405280929190818152602001828054600181600116156101000203166002900480156107125780601f106106e757610100808354040283529160200191610712565b820191906000526020600020905b8154815290600101906020018083116106f557829003601f168201915b5050505050908060040160009054906101000a900460ff16908060050154908060070154905087565b600860009054906101000a900473ffffffffffffffffffffffffffffffffffffffff1673ffffffffffffffffffffffffffffffffffffffff166397728f813360028081111561078657fe5b6040518363ffffffff1660e01b81526004016107a39291906124bd565b60206040518083038186803b1580156107bb57600080fd5b505afa1580156107cf573d6000803e3d6000fd5b505050506040513d601f19601f820116820180604052506107f39190810190612114565b6107fc57600080fd5b600234101561080a57600080fd5b600080815480929190600101919050555060405180610140016040528060005481526020013373ffffffffffffffffffffffffffffffffffffffff1681526020018381526020018281526020016000600281111561086457fe5b81526020016000815260200160006040519080825280602002602001820160405280156108a05781602001602082028038833980820191505090505b5081526020016000815260200160006040519080825280602002602001820160405280156108dd5781602001602082028038833980820191505090505b50815260200160006040519080825280602002602001820160405280156109135781602001602082028038833980820191505090505b5081525060016000805481526020019081526020016000206000820151816000015560208201518160010160006101000a81548173ffffffffffffffffffffffffffffffffffffffff021916908373ffffffffffffffffffffffffffffffffffffffff1602179055506040820151816002019080519060200190610998929190611cdd565b5060608201518160030190805190602001906109b5929190611cdd565b5060808201518160040160006101000a81548160ff021916908360028111156109da57fe5b021790555060a0820151816005015560c0820151816006019080519060200190610a05929190611d5d565b5060e08201518160070155610100820151816008019080519060200190610a2d929190611d5d565b50610120820151816009019080519060200190610a4b929190611d5d565b50905050600282908060018154018082558091505060019003906000526020600020016000909190919091509080519060200190610a8a929190611de7565b50600360009054906101000a900473ffffffffffffffffffffffffffffffffffffffff1673ffffffffffffffffffffffffffffffffffffffff166108fc349081150290604051600060405180830381858888f19350505050158015610af3573d6000803e3d6000fd5b505050565b600860009054906101000a900473ffffffffffffffffffffffffffffffffffffffff1673ffffffffffffffffffffffffffffffffffffffff166397728f813360006002811115610b4457fe5b6040518363ffffffff1660e01b8152600401610b619291906124bd565b60206040518083038186803b158015610b7957600080fd5b505afa158015610b8d573d6000803e3d6000fd5b505050506040513d601f19601f82011682018060405250610bb19190810190612114565b610bba57600080fd5b60006002811115610bc757fe5b6001600083815260200190815260200160002060040160009054906101000a900460ff166002811115610bf657fe5b14610c0057610d61565b60016000828152602001908152602001600020600901339080600181540180825580915050600190039060005260206000200160009091909190916101000a81548173ffffffffffffffffffffffffffffffffffffffff021916908373ffffffffffffffffffffffffffffffffffffffff1602179055506005600160008381526020019081526020016000206009018054905010610ca257610ca181611a28565b5b34600760003373ffffffffffffffffffffffffffffffffffffffff1673ffffffffffffffffffffffffffffffffffffffff168152602001908152602001600020600083815260200190815260200160002081905550600360009054906101000a900473ffffffffffffffffffffffffffffffffffffffff1673ffffffffffffffffffffffffffffffffffffffff166108fc349081150290604051600060405180830381858888f19350505050158015610d5f573d6000803e3d6000fd5b505b50565b60005481565b60016000828152602001908152602001600020600460008473ffffffffffffffffffffffffffffffffffffffff1673ffffffffffffffffffffffffffffffffffffffff168152602001908152602001600020600082015481600001556001820160009054906101000a900473ffffffffffffffffffffffffffffffffffffffff168160010160006101000a81548173ffffffffffffffffffffffffffffffffffffffff021916908373ffffffffffffffffffffffffffffffffffffffff16021790555060028201816002019080546001816001161561010002031660029004610e54929190611e67565b5060038201816003019080546001816001161561010002031660029004610e7c929190611e67565b506004820160009054906101000a900460ff168160040160006101000a81548160ff02191690836002811115610eae57fe5b0217905550600582015481600501556006820181600601908054610ed3929190611eee565b50600782015481600701556008820181600801908054610ef4929190611eee565b506009820181600901908054610f0b929190611eee565b509050505050565b60606002805480602002602001604051908101604052809291908181526020016000905b82821015610ff3578382906000526020600020018054600181600116156101000203166002900480601f016020809104026020016040519081016040528092919081815260200182805460018160011615610100020316600290048015610fdf5780601f10610fb457610100808354040283529160200191610fdf565b820191906000526020600020905b815481529060010190602001808311610fc257829003601f168201915b505050505081526020019060010190610f37565b50505050905090565b611004611f40565b600860009054906101000a900473ffffffffffffffffffffffffffffffffffffffff1673ffffffffffffffffffffffffffffffffffffffff166397728f81336000600281111561105057fe5b6040518363ffffffff1660e01b815260040161106d9291906124bd565b60206040518083038186803b15801561108557600080fd5b505afa158015611099573d6000803e3d6000fd5b505050506040513d601f19601f820116820180604052506110bd9190810190612114565b6110c657600080fd5b60013410156110d457600080fd5b600360009054906101000a900473ffffffffffffffffffffffffffffffffffffffff1673ffffffffffffffffffffffffffffffffffffffff166108fc349081150290604051600060405180830381858888f1935050505015801561113c573d6000803e3d6000fd5b506001600083815260200190815260200160002060405180610140016040529081600082015481526020016001820160009054906101000a900473ffffffffffffffffffffffffffffffffffffffff1673ffffffffffffffffffffffffffffffffffffffff1673ffffffffffffffffffffffffffffffffffffffff168152602001600282018054600181600116156101000203166002900480601f0160208091040260200160405190810160405280929190818152602001828054600181600116156101000203166002900480156112555780601f1061122a57610100808354040283529160200191611255565b820191906000526020600020905b81548152906001019060200180831161123857829003601f168201915b50505050508152602001600382018054600181600116156101000203166002900480601f0160208091040260200160405190810160405280929190818152602001828054600181600116156101000203166002900480156112f75780601f106112cc576101008083540402835291602001916112f7565b820191906000526020600020905b8154815290600101906020018083116112da57829003601f168201915b505050505081526020016004820160009054906101000a900460ff16600281111561131e57fe5b600281111561132957fe5b815260200160058201548152602001600682018054806020026020016040519081016040528092919081815260200182805480156113bc57602002820191906000526020600020905b8160009054906101000a900473ffffffffffffffffffffffffffffffffffffffff1673ffffffffffffffffffffffffffffffffffffffff1681526020019060010190808311611372575b50505050508152602001600782015481526020016008820180548060200260200160405190810160405280929190818152602001828054801561145457602002820191906000526020600020905b8160009054906101000a900473ffffffffffffffffffffffffffffffffffffffff1673ffffffffffffffffffffffffffffffffffffffff168152602001906001019080831161140a575b50505050508152602001600982018054806020026020016040519081016040528092919081815260200182805480156114e257602002820191906000526020600020905b8160009054906101000a900473ffffffffffffffffffffffffffffffffffffffff1673ffffffffffffffffffffffffffffffffffffffff1681526020019060010190808311611498575b5050505050815250509050919050565b600860009054906101000a900473ffffffffffffffffffffffffffffffffffffffff1673ffffffffffffffffffffffffffffffffffffffff166397728f81336001600281111561153e57fe5b6040518363ffffffff1660e01b815260040161155b9291906124bd565b60206040518083038186803b15801561157357600080fd5b505afa158015611587573d6000803e3d6000fd5b505050506040513d601f19601f820116820180604052506115ab9190810190612114565b6115b457600080fd5b60016000828152602001908152602001600020600601339080600181540180825580915050600190039060005260206000200160009091909190916101000a81548173ffffffffffffffffffffffffffffffffffffffff021916908373ffffffffffffffffffffffffffffffffffffffff1602179055506001600082815260200190815260200160002060050160008154809291906001019190505550600460003373ffffffffffffffffffffffffffffffffffffffff1673ffffffffffffffffffffffffffffffffffffffff1681526020019081526020016000206000808201600090556001820160006101000a81549073ffffffffffffffffffffffffffffffffffffffff02191690556002820160006116d09190611c74565b6003820160006116e09190611c74565b6004820160006101000a81549060ff0219169055600582016000905560068201600061170c9190611cbc565b60078201600090556008820160006117249190611cbc565b6009820160006117349190611cbc565b50506005339080600181540180825580915050600190039060005260206000200160009091909190916101000a81548173ffffffffffffffffffffffffffffffffffffffff021916908373ffffffffffffffffffffffffffffffffffffffff1602179055506003600160008381526020019081526020016000206007015460016000848152602001908152602001600020600501540114156117da576117d98161197c565b5b50565b60016020528060005260406000206000915090508060000154908060010160009054906101000a900473ffffffffffffffffffffffffffffffffffffffff1690806002018054600181600116156101000203166002900480601f0160208091040260200160405190810160405280929190818152602001828054600181600116156101000203166002900480156118b55780601f1061188a576101008083540402835291602001916118b5565b820191906000526020600020905b81548152906001019060200180831161189857829003601f168201915b505050505090806003018054600181600116156101000203166002900480601f0160208091040260200160405190810160405280929190818152602001828054600181600116156101000203166002900480156119535780601f1061192857610100808354040283529160200191611953565b820191906000526020600020905b81548152906001019060200180831161193657829003601f168201915b5050505050908060040160009054906101000a900460ff16908060050154908060070154905087565b6001600082815260200190815260200160002060070154600160008381526020019081526020016000206005015411156119ed5760026001600083815260200190815260200160002060040160006101000a81548160ff021916908360028111156119e357fe5b0217905550611a25565b600180600083815260200190815260200160002060040160006101000a81548160ff02191690836002811115611a1f57fe5b02179055505b50565b6000600390505b6000811115611c70576000600560016005805490500381548110611a4f57fe5b9060005260206000200160009054906101000a900473ffffffffffffffffffffffffffffffffffffffff1690506005805480611a8757fe5b6001900381819060005260206000200160006101000a81549073ffffffffffffffffffffffffffffffffffffffff0219169055905560016000848152602001908152602001600020600460008373ffffffffffffffffffffffffffffffffffffffff1673ffffffffffffffffffffffffffffffffffffffff168152602001908152602001600020600082015481600001556001820160009054906101000a900473ffffffffffffffffffffffffffffffffffffffff168160010160006101000a81548173ffffffffffffffffffffffffffffffffffffffff021916908373ffffffffffffffffffffffffffffffffffffffff16021790555060028201816002019080546001816001161561010002031660029004611ba6929190611e67565b5060038201816003019080546001816001161561010002031660029004611bce929190611e67565b506004820160009054906101000a900460ff168160040160006101000a81548160ff02191690836002811115611c0057fe5b0217905550600582015481600501556006820181600601908054611c25929190611eee565b50600782015481600701556008820181600801908054611c46929190611eee565b506009820181600901908054611c5d929190611eee565b5090505081806001900392505050611a2f565b5050565b50805460018160011615610100020316600290046000825580601f10611c9a5750611cb9565b601f016020900490600052602060002090810190611cb89190611fb4565b5b50565b5080546000825590600052602060002090810190611cda9190611fb4565b50565b828054600181600116156101000203166002900490600052602060002090601f016020900481019282601f10611d1e57805160ff1916838001178555611d4c565b82800160010185558215611d4c579182015b82811115611d4b578251825591602001919060010190611d30565b5b509050611d599190611fb4565b5090565b828054828255906000526020600020908101928215611dd6579160200282015b82811115611dd55782518260006101000a81548173ffffffffffffffffffffffffffffffffffffffff021916908373ffffffffffffffffffffffffffffffffffffffff16021790555091602001919060010190611d7d565b5b509050611de39190611fd9565b5090565b828054600181600116156101000203166002900490600052602060002090601f016020900481019282601f10611e2857805160ff1916838001178555611e56565b82800160010185558215611e56579182015b82811115611e55578251825591602001919060010190611e3a565b5b509050611e639190611fb4565b5090565b828054600181600116156101000203166002900490600052602060002090601f016020900481019282601f10611ea05780548555611edd565b82800160010185558215611edd57600052602060002091601f016020900482015b82811115611edc578254825591600101919060010190611ec1565b5b509050611eea9190611fb4565b5090565b828054828255906000526020600020908101928215611f2f5760005260206000209182015b82811115611f2e578254825591600101919060010190611f13565b5b509050611f3c9190611fd9565b5090565b60405180610140016040528060008152602001600073ffffffffffffffffffffffffffffffffffffffff168152602001606081526020016060815260200160006002811115611f8b57fe5b815260200160008152602001606081526020016000815260200160608152602001606081525090565b611fd691905b80821115611fd2576000816000905550600101611fba565b5090565b90565b61201991905b8082111561201557600081816101000a81549073ffffffffffffffffffffffffffffffffffffffff021916905550600101611fdf565b5090565b90565b60008135905061202b816127bd565b92915050565b600081519050612040816127d4565b92915050565b600082601f83011261205757600080fd5b813561206a612065826125ef565b6125c2565b9150808252602083016020830185838301111561208657600080fd5b61209183828461275d565b50505092915050565b6000813590506120a9816127eb565b92915050565b6000602082840312156120c157600080fd5b60006120cf8482850161201c565b91505092915050565b600080604083850312156120eb57600080fd5b60006120f98582860161201c565b925050602061210a8582860161209a565b9150509250929050565b60006020828403121561212657600080fd5b600061213484828501612031565b91505092915050565b6000806040838503121561215057600080fd5b600083013567ffffffffffffffff81111561216a57600080fd5b61217685828601612046565b925050602083013567ffffffffffffffff81111561219357600080fd5b61219f85828601612046565b9150509250929050565b6000602082840312156121bb57600080fd5b60006121c98482850161209a565b91505092915050565b60006121de838361220d565b60208301905092915050565b60006121f6838361231c565b905092915050565b61220781612715565b82525050565b612216816126ba565b82525050565b612225816126ba565b82525050565b60006122368261263b565b6122408185612676565b935061224b8361261b565b8060005b8381101561227c57815161226388826121d2565b975061226e8361265c565b92505060018101905061224f565b5085935050505092915050565b600061229482612646565b61229e8185612687565b9350836020820285016122b08561262b565b8060005b858110156122ec57848403895281516122cd85826121ea565b94506122d883612669565b925060208a019950506001810190506122b4565b50829750879550505050505092915050565b61230781612727565b82525050565b61231681612727565b82525050565b600061232782612651565b6123318185612698565b935061234181856020860161276c565b61234a8161279f565b840191505092915050565b600061236082612651565b61236a81856126a9565b935061237a81856020860161276c565b6123838161279f565b840191505092915050565b6000610140830160008301516123a76000860182612484565b5060208301516123ba602086018261220d565b50604083015184820360408601526123d2828261231c565b915050606083015184820360608601526123ec828261231c565b915050608083015161240160808601826122fe565b5060a083015161241460a0860182612484565b5060c083015184820360c086015261242c828261222b565b91505060e083015161244160e0860182612484565b5061010083015184820361010086015261245b828261222b565b915050610120830151848203610120860152612477828261222b565b9150508091505092915050565b61248d8161270b565b82525050565b61249c8161270b565b82525050565b60006020820190506124b7600083018461221c565b92915050565b60006040820190506124d260008301856121fe565b6124df6020830184612493565b9392505050565b600060208201905081810360008301526125008184612289565b905092915050565b60006020820190508181036000830152612522818461238e565b905092915050565b600060208201905061253f6000830184612493565b92915050565b600060e08201905061255a600083018a612493565b612567602083018961221c565b81810360408301526125798188612355565b9050818103606083015261258d8187612355565b905061259c608083018661230d565b6125a960a0830185612493565b6125b660c0830184612493565b98975050505050505050565b6000604051905081810181811067ffffffffffffffff821117156125e557600080fd5b8060405250919050565b600067ffffffffffffffff82111561260657600080fd5b601f19601f8301169050602081019050919050565b6000819050602082019050919050565b6000819050602082019050919050565b600081519050919050565b600081519050919050565b600081519050919050565b6000602082019050919050565b6000602082019050919050565b600082825260208201905092915050565b600082825260208201905092915050565b600082825260208201905092915050565b600082825260208201905092915050565b60006126c5826126eb565b9050919050565b60008115159050919050565b60008190506126e6826127b0565b919050565b600073ffffffffffffffffffffffffffffffffffffffff82169050919050565b6000819050919050565b600061272082612739565b9050919050565b6000612732826126d8565b9050919050565b60006127448261274b565b9050919050565b6000612756826126eb565b9050919050565b82818337600083830152505050565b60005b8381101561278a57808201518184015260208101905061276f565b83811115612799576000848401525b50505050565b6000601f19601f8301169050919050565b600381106127ba57fe5b50565b6127c6816126ba565b81146127d157600080fd5b50565b6127dd816126cc565b81146127e857600080fd5b50565b6127f48161270b565b81146127ff57600080fd5b5056fea2646970667358221220bea86ad4604ad8acdb9c662022fbc400575c322a9093f79761546477c2fadb7d64736f6c63430006000033",
  "source": "// SPDX-License-Identifier: MIT\r\npragma solidity >=0.4.21 <8.10.0;\r\npragma experimental ABIEncoderV2;\r\n\r\ncontract Accounts {\r\n    address public creator;\r\n    mapping(address => mapping(uint => bool)) accountRoles;\r\n    enum Role { Reader, Validator, Publisher }\r\n    address[] freeValidators;\r\n\r\n    constructor() public {\r\n        creator = msg.sender;\r\n    }\r\n\r\n    function accountAddRole(address account, uint role) public { //adds specified role to account\r\n        require(\r\n            msg.sender == creator\r\n        );\r\n        accountRoles[account][role] = true;\r\n\r\n        if(role == uint(Role.Validator)) {\r\n            freeValidators.push(account);\r\n        }\r\n    }\r\n\r\n    function accountHasRole(address account, uint role) public view returns (bool) { //checks whether account has specified role\r\n        return accountRoles[account][role];\r\n    }\r\n}\r\n\r\n\r\ncontract NewsFeed\r\n{\r\n    uint256 constant reportThreshold=5; //if no. of reports reaches this, validtors will be assigned\r\n    uint256 constant validatorCount=3; //no. of validators assigned to each news article for validation\r\n    uint256 constant publishingCost=2; //cost to publish an article on the app\r\n    uint256 constant readingCost=1; //cost to read an article\r\n\r\n    uint256 public newsCount=0;\r\n    enum State { Unverified, Fake, Verified }\r\n    mapping(uint256=>News) public news_feed;\r\n    string[] articleTitles; //stores only titles, for showing feed\r\n    address public creator;\r\n    mapping(address => News) public assignedArticle; //stores mapping of what articles is assigned to each validator at a given moment\r\n    address[] freeValidators; //list of validators who are idle\r\n    address[] articleStake;\r\n    mapping(address => mapping(uint => uint)) readerStake; //stores amount reader stakes on an article\r\n    Accounts accContract;\r\n\r\n\r\n    struct News {\r\n        uint256 id;\r\n        address publisher;\r\n        string title;\r\n        string description;\r\n        State news_state;\r\n        uint256 upvotes;\r\n        address[]  upvotes_address;\r\n        uint256 downvotes;\r\n        address[] downvotes_address;\r\n        address[] reporters;\r\n    }\r\n\r\n    constructor(Accounts _accContract) public { //called when contract is first created\r\n        creator = msg.sender;\r\n        accContract = _accContract;\r\n    }\r\n\r\n    function addNews (string memory _title, string memory _description) payable public { //adds a news article\r\n        require(\r\n            accContract.accountHasRole(msg.sender, uint(Accounts.Role.Publisher))\r\n        );\r\n        require(\r\n            msg.value >= publishingCost\r\n        );\r\n        newsCount++;\r\n        news_feed[newsCount]=News({\r\n            id: newsCount,\r\n            publisher: msg.sender,\r\n            title: _title,\r\n            news_state: State.Unverified,\r\n            description: _description,\r\n            upvotes: 0,\r\n            downvotes: 0,\r\n            upvotes_address: new address [](0),\r\n            downvotes_address: new address [](0),\r\n            reporters: new address [](0)\r\n        });\r\n        articleTitles.push(_title);\r\n        payable(creator).transfer(msg.value);\r\n    }\r\n\r\n    function getFeed() public returns (string[] memory) {\r\n        return articleTitles;\r\n    }\r\n\r\n    function readNews(uint256 _index) public payable returns (News memory) {\r\n        require(\r\n            accContract.accountHasRole(msg.sender, uint(Accounts.Role.Reader))\r\n        );\r\n        require(\r\n            msg.value >= readingCost\r\n        );\r\n        payable(creator).transfer(msg.value);\r\n        return news_feed[_index];\r\n    }\r\n\r\n    function report(uint256 _index) payable public { //reader reports an article as fake news\r\n        require(\r\n            accContract.accountHasRole(msg.sender, uint(Accounts.Role.Reader))\r\n        );\r\n        if(news_feed[_index].news_state != State.Unverified) return;\r\n\r\n        news_feed[_index].reporters.push(msg.sender);\r\n        if(news_feed[_index].reporters.length >= reportThreshold) {\r\n            assignValidators(_index); //assuming for now there are always enough validators\r\n        }\r\n        readerStake[msg.sender][_index] = msg.value;\r\n        payable(creator).transfer(msg.value);\r\n    }\r\n\r\n    function asvalid(address acc,uint _index) public {\r\n        assignedArticle[acc]=news_feed[_index];\r\n    }\r\n\r\n    function assignValidators(uint256 _index) private { //contract assigns validators when enough readers have reported\r\n        uint cnt = validatorCount;\r\n        while(cnt > 0) {\r\n            address currentValidator = freeValidators[freeValidators.length - 1];\r\n            freeValidators.pop();\r\n            assignedArticle[currentValidator] = news_feed[_index];\r\n            cnt--;\r\n        }\r\n    }\r\n\r\n\r\n    function addUpvote(uint256 _index) public { //validator votes as legitmiate news\r\n        require(\r\n            accContract.accountHasRole(msg.sender, uint(Accounts.Role.Validator))\r\n        );\r\n        news_feed[_index].upvotes_address.push(msg.sender);\r\n        news_feed[_index].upvotes++;\r\n\r\n        delete assignedArticle[msg.sender];\r\n        freeValidators.push(msg.sender);\r\n\r\n        if(news_feed[_index].upvotes + news_feed[_index].downvotes == validatorCount) { decideState(_index); }\r\n    }\r\n\r\n    function addDownvote(uint256 _index) public { //validator votes as fake news\r\n        require(\r\n            accContract.accountHasRole(msg.sender, uint(Accounts.Role.Validator))\r\n        );\r\n        news_feed[_index].downvotes_address.push(msg.sender);\r\n        news_feed[_index].downvotes++;\r\n\r\n        delete assignedArticle[msg.sender];\r\n        freeValidators.push(msg.sender);\r\n\r\n        if(news_feed[_index].upvotes + news_feed[_index].downvotes == validatorCount) { decideState(_index); }\r\n    }\r\n\r\n    function decideState(uint256 _index) private { //decides the state once all validators have voted\r\n        if(news_feed[_index].upvotes > news_feed[_index].downvotes) {\r\n            news_feed[_index].news_state = State.Verified;\r\n        }\r\n        else {\r\n            news_feed[_index].news_state = State.Fake;\r\n        }\r\n    }\r\n}\r\n\r\n\r\n",
  "sourcePath": "C:\\Users\\Asus\\Desktop\\Hack36\\Hack36_2022\\contracts\\NewsFeed.sol",
  "compiler": {
    "name": "solc",
    "version": "0.6.0+commit.26b70077.Emscripten.clang"
  },
  "schemaVersion": "3.4.7",
  "updatedAt": "2022-04-23T17:08:25.863Z",
  "networkType": "ethereum",
  "devdoc": {
    "methods": {}
  },
  "userdoc": {
    "methods": {}
  }
}