{
  "contractName": "NewsFeed",
  "abi": [
    {
      "inputs": [],
      "payable": false,
      "stateMutability": "nonpayable",
      "type": "constructor"
    },
    {
      "constant": true,
      "inputs": [],
      "name": "creator",
      "outputs": [
        {
          "internalType": "address",
          "name": "",
          "type": "address"
        }
      ],
      "payable": false,
      "stateMutability": "view",
      "type": "function"
    },
    {
      "constant": true,
      "inputs": [],
      "name": "newsCount",
      "outputs": [
        {
          "internalType": "uint256",
          "name": "",
          "type": "uint256"
        }
      ],
      "payable": false,
      "stateMutability": "view",
      "type": "function"
    },
    {
      "constant": true,
      "inputs": [
        {
          "internalType": "uint256",
          "name": "",
          "type": "uint256"
        }
      ],
      "name": "news_feed",
      "outputs": [
        {
          "internalType": "uint256",
          "name": "id",
          "type": "uint256"
        },
        {
          "internalType": "address",
          "name": "publisher",
          "type": "address"
        },
        {
          "internalType": "string",
          "name": "title",
          "type": "string"
        },
        {
          "internalType": "string",
          "name": "description",
          "type": "string"
        },
        {
          "internalType": "enum NewsFeed.State",
          "name": "news_state",
          "type": "uint8"
        },
        {
          "internalType": "uint256",
          "name": "upvotes",
          "type": "uint256"
        },
        {
          "internalType": "uint256",
          "name": "downvotes",
          "type": "uint256"
        },
        {
          "internalType": "uint256",
          "name": "reportCount",
          "type": "uint256"
        }
      ],
      "payable": false,
      "stateMutability": "view",
      "type": "function"
    },
    {
      "constant": false,
      "inputs": [
        {
          "internalType": "string",
          "name": "_title",
          "type": "string"
        },
        {
          "internalType": "string",
          "name": "_description",
          "type": "string"
        }
      ],
      "name": "addNews",
      "outputs": [],
      "payable": true,
      "stateMutability": "payable",
      "type": "function"
    },
    {
      "constant": false,
      "inputs": [
        {
          "internalType": "uint256",
          "name": "_index",
          "type": "uint256"
        }
      ],
      "name": "report",
      "outputs": [],
      "payable": true,
      "stateMutability": "payable",
      "type": "function"
    }
  ],
  "bytecode": "0x60806040526000805534801561001457600080fd5b5033600360006101000a81548173ffffffffffffffffffffffffffffffffffffffff021916908373ffffffffffffffffffffffffffffffffffffffff160217905550610df4806100656000396000f3fe60806040526004361061004a5760003560e01c806302d05d3f1461004f57806380ec938e146100a6578063969b1cdb146101f85780639981d6d314610226578063f30399f314610251575b600080fd5b34801561005b57600080fd5b506100646103d5565b604051808273ffffffffffffffffffffffffffffffffffffffff1673ffffffffffffffffffffffffffffffffffffffff16815260200191505060405180910390f35b6101f6600480360360408110156100bc57600080fd5b81019080803590602001906401000000008111156100d957600080fd5b8201836020820111156100eb57600080fd5b8035906020019184600183028401116401000000008311171561010d57600080fd5b91908080601f016020809104026020016040519081016040528093929190818152602001838380828437600081840152601f19601f8201169050808301925050505050505091929192908035906020019064010000000081111561017057600080fd5b82018360208201111561018257600080fd5b803590602001918460018302840111640100000000831117156101a457600080fd5b91908080601f016020809104026020016040519081016040528093929190818152602001838380828437600081840152601f19601f8201169050808301925050505050505091929192905050506103fb565b005b6102246004803603602081101561020e57600080fd5b8101908080359060200190929190505050610616565b005b34801561023257600080fd5b5061023b610717565b6040518082815260200191505060405180910390f35b34801561025d57600080fd5b5061028a6004803603602081101561027457600080fd5b810190808035906020019092919050505061071d565b604051808981526020018873ffffffffffffffffffffffffffffffffffffffff1673ffffffffffffffffffffffffffffffffffffffff16815260200180602001806020018760028111156102da57fe5b60ff168152602001868152602001858152602001848152602001838103835289818151815260200191508051906020019080838360005b8381101561032c578082015181840152602081019050610311565b50505050905090810190601f1680156103595780820380516001836020036101000a031916815260200191505b50838103825288818151815260200191508051906020019080838360005b83811015610392578082015181840152602081019050610377565b50505050905090810190601f1680156103bf5780820380516001836020036101000a031916815260200191505b509a505050505050505050505060405180910390f35b600360009054906101000a900473ffffffffffffffffffffffffffffffffffffffff1681565b6104063360026108c2565b61040f57600080fd5b600080815480929190600101919050555060405180610140016040528060005481526020013373ffffffffffffffffffffffffffffffffffffffff1681526020018381526020018281526020016000600281111561046957fe5b81526020016000815260200160006040519080825280602002602001820160405280156104a55781602001602082028038833980820191505090505b5081526020016000815260200160006040519080825280602002602001820160405280156104e25781602001602082028038833980820191505090505b508152602001600081525060016000805481526020019081526020016000206000820151816000015560208201518160010160006101000a81548173ffffffffffffffffffffffffffffffffffffffff021916908373ffffffffffffffffffffffffffffffffffffffff160217905550604082015181600201908051906020019061056e929190610b74565b50606082015181600301908051906020019061058b929190610b74565b5060808201518160040160006101000a81548160ff021916908360028111156105b057fe5b021790555060a0820151816005015560c08201518160060190805190602001906105db929190610bf4565b5060e08201518160070155610100820151816008019080519060200190610603929190610bf4565b5061012082015181600901559050505050565b6106213360006108c2565b61062a57600080fd5b6000600281111561063757fe5b6001600083815260200190815260200160002060040160009054906101000a900460ff16600281111561066657fe5b1461067057610714565b600160008281526020019081526020016000206009016000815480929190600101919050555060056001600083815260200190815260200160002060090154106106be576106bd81610935565b5b34600760003373ffffffffffffffffffffffffffffffffffffffff1673ffffffffffffffffffffffffffffffffffffffff1681526020019081526020016000206000838152602001908152602001600020819055505b50565b60005481565b60016020528060005260406000206000915090508060000154908060010160009054906101000a900473ffffffffffffffffffffffffffffffffffffffff1690806002018054600181600116156101000203166002900480601f0160208091040260200160405190810160405280929190818152602001828054600181600116156101000203166002900480156107f55780601f106107ca576101008083540402835291602001916107f5565b820191906000526020600020905b8154815290600101906020018083116107d857829003601f168201915b505050505090806003018054600181600116156101000203166002900480601f0160208091040260200160405190810160405280929190818152602001828054600181600116156101000203166002900480156108935780601f1061086857610100808354040283529160200191610893565b820191906000526020600020905b81548152906001019060200180831161087657829003601f168201915b5050505050908060040160009054906101000a900460ff16908060050154908060070154908060090154905088565b6000600260008473ffffffffffffffffffffffffffffffffffffffff1673ffffffffffffffffffffffffffffffffffffffff168152602001908152602001600020600083600281111561091157fe5b815260200190815260200160002060009054906101000a900460ff16905092915050565b6000600390505b6000811115610b7057600060056001600580549050038154811061095c57fe5b9060005260206000200160009054906101000a900473ffffffffffffffffffffffffffffffffffffffff169050600580548061099457fe5b6001900381819060005260206000200160006101000a81549073ffffffffffffffffffffffffffffffffffffffff0219169055905560016000848152602001908152602001600020600460008373ffffffffffffffffffffffffffffffffffffffff1673ffffffffffffffffffffffffffffffffffffffff168152602001908152602001600020600082015481600001556001820160009054906101000a900473ffffffffffffffffffffffffffffffffffffffff168160010160006101000a81548173ffffffffffffffffffffffffffffffffffffffff021916908373ffffffffffffffffffffffffffffffffffffffff16021790555060028201816002019080546001816001161561010002031660029004610ab3929190610c7e565b5060038201816003019080546001816001161561010002031660029004610adb929190610c7e565b506004820160009054906101000a900460ff168160040160006101000a81548160ff02191690836002811115610b0d57fe5b0217905550600582015481600501556006820181600601908054610b32929190610d05565b50600782015481600701556008820181600801908054610b53929190610d05565b50600982015481600901559050508180600190039250505061093c565b5050565b828054600181600116156101000203166002900490600052602060002090601f016020900481019282601f10610bb557805160ff1916838001178555610be3565b82800160010185558215610be3579182015b82811115610be2578251825591602001919060010190610bc7565b5b509050610bf09190610d57565b5090565b828054828255906000526020600020908101928215610c6d579160200282015b82811115610c6c5782518260006101000a81548173ffffffffffffffffffffffffffffffffffffffff021916908373ffffffffffffffffffffffffffffffffffffffff16021790555091602001919060010190610c14565b5b509050610c7a9190610d7c565b5090565b828054600181600116156101000203166002900490600052602060002090601f016020900481019282601f10610cb75780548555610cf4565b82800160010185558215610cf457600052602060002091601f016020900482015b82811115610cf3578254825591600101919060010190610cd8565b5b509050610d019190610d57565b5090565b828054828255906000526020600020908101928215610d465760005260206000209182015b82811115610d45578254825591600101919060010190610d2a565b5b509050610d539190610d7c565b5090565b610d7991905b80821115610d75576000816000905550600101610d5d565b5090565b90565b610dbc91905b80821115610db857600081816101000a81549073ffffffffffffffffffffffffffffffffffffffff021916905550600101610d82565b5090565b9056fea265627a7a72315820c710ec57164071eb086d85863e7479781d2c491f3b1b35102f8fb948d9db692464736f6c63430005100032",
  "source": "// SPDX-License-Identifier: MIT\npragma solidity >=0.4.21 <8.10.0;\n\ncontract NewsFeed\n{\n    uint256 constant reportThreshold=5; //if no. of reports reaches this, validtors will be assigned\n    uint256 constant validatorCount=3; //no. of validators assigned to each news article for validation\n\n    uint256 public newsCount=0;\n    enum State { Unverified, Fake, Verified }\n    enum Role { Reader, Validator, Publisher }\n    mapping(uint256=>News) public news_feed;\n    mapping(address => mapping(uint => bool)) accountRoles;\n    address public creator;\n    mapping(address => News) assignedArticle; //stores mapping of what articles is assigned to each validator at a given moment\n    address[] freeValidators; //list of validators who have are idle\n    address[] articleStake;\n    mapping(address => mapping(uint => uint)) readerStake; //stores amount reader stakes on an article\n\n    function accountAddRole(address account, Role role) internal { //adds specified role to account\n        require(\n            msg.sender == creator\n        );\n        accountRoles[account][uint(role)] = true;\n\n        if(role == Role.Validator) {\n            freeValidators.push(account);\n        }\n    }\n\n    function accountHasRole(address account, Role role) internal\n    view returns (bool) { //checks whether account has specified role\n        return accountRoles[account][uint(role)];\n    }\n\n    struct News{\n        uint256 id;\n        address publisher;\n        string title;\n        string description;\n        State news_state;\n        uint256 upvotes;\n        address[]  upvotes_address;\n        uint256 downvotes;\n        address[] downvotes_address;\n        uint256 reportCount;\n    }\n\n    constructor() public { //called when contract is first created\n        creator = msg.sender;\n    }\n\n    function addNews (string memory _title, string memory _description) payable public { //adds a news article\n        require(\n            accountHasRole(msg.sender, Role.Publisher)\n        );\n        newsCount++;\n        news_feed[newsCount]=News({\n            id: newsCount,\n            publisher: msg.sender,\n            title: _title,\n            news_state: State.Unverified,\n            description: _description,\n            upvotes: 0,\n            downvotes: 0,\n            upvotes_address: new address [](0),\n            downvotes_address: new address [](0),\n            reportCount: 0\n        });\n       // payable(creator).transfer(msg.value);\n    }\n\n    function decideState(uint256 _index) private { //decides the state once all validators have voted\n        if(news_feed[_index].upvotes > news_feed[_index].downvotes) {\n            news_feed[_index].news_state = State.Verified;\n        }\n        else {\n            news_feed[_index].news_state = State.Fake;\n        }\n    }\n\n\n    function report(uint256 _index) payable public { //reader reports an article as fake news\n        require(\n            accountHasRole(msg.sender, Role.Reader)\n        );\n        if(news_feed[_index].news_state != State.Unverified) return;\n\n        news_feed[_index].reportCount++;\n        if(news_feed[_index].reportCount >= reportThreshold) {\n            assignValidators(_index);\n        }\n        readerStake[msg.sender][_index] = msg.value;\n       // payable(creator).transfer(msg.value);\n    }\n\n    function assignValidators(uint256 _index) private { //contract assigns validators when enough readers have reported\n        uint cnt = validatorCount;\n        while(cnt > 0) {\n            address currentValidator = freeValidators[freeValidators.length - 1];\n            freeValidators.pop();\n            assignedArticle[currentValidator] = news_feed[_index];\n            cnt--;\n        }\n    }\n\n\n    function addUpvote(uint256 _index) private { //validator votes as legitmiate news\n        require(\n            accountHasRole(msg.sender, Role.Validator)\n        );\n        news_feed[_index].upvotes_address.push(msg.sender);\n        news_feed[_index].upvotes++;\n    }\n\n    function addDownvote(uint256 _index) private { //validator votes as fake news\n        require(\n            accountHasRole(msg.sender, Role.Validator)\n        );\n        news_feed[_index].downvotes_address.push(msg.sender);\n        news_feed[_index].downvotes++;\n    }\n}\n",
  "sourcePath": "/Users/siddheshpatil/WebstormProjects/Hack36_2022/contracts/NewsFeed.sol",
  "compiler": {
    "name": "solc",
    "version": "0.5.16+commit.9c3226ce.Emscripten.clang"
  },
  "schemaVersion": "3.4.7",
  "updatedAt": "2022-04-23T01:28:24.464Z",
  "devdoc": {
    "methods": {}
  },
  "userdoc": {
    "methods": {}
  }
}