{
  "contractName": "NewsFeed",
  "abi": [
    {
      "inputs": [
        {
          "internalType": "contract Accounts",
          "name": "_accContract",
          "type": "address"
        }
      ],
      "stateMutability": "nonpayable",
      "type": "constructor"
    },
    {
      "inputs": [],
      "name": "creator",
      "outputs": [
        {
          "internalType": "address",
          "name": "",
          "type": "address"
        }
      ],
      "stateMutability": "view",
      "type": "function",
      "constant": true
    },
    {
      "inputs": [],
      "name": "newsCount",
      "outputs": [
        {
          "internalType": "uint256",
          "name": "",
          "type": "uint256"
        }
      ],
      "stateMutability": "view",
      "type": "function",
      "constant": true
    },
    {
      "inputs": [
        {
          "internalType": "string",
          "name": "_title",
          "type": "string"
        },
        {
          "internalType": "string",
          "name": "_description",
          "type": "string"
        }
      ],
      "name": "addNews",
      "outputs": [],
      "stateMutability": "payable",
      "type": "function",
      "payable": true
    },
    {
      "inputs": [],
      "name": "getFeed",
      "outputs": [
        {
          "internalType": "string[]",
          "name": "",
          "type": "string[]"
        }
      ],
      "stateMutability": "nonpayable",
      "type": "function"
    },
    {
      "inputs": [
        {
          "internalType": "uint256",
          "name": "_index",
          "type": "uint256"
        }
      ],
      "name": "readNews",
      "outputs": [
        {
          "components": [
            {
              "internalType": "uint256",
              "name": "id",
              "type": "uint256"
            },
            {
              "internalType": "address",
              "name": "publisher",
              "type": "address"
            },
            {
              "internalType": "string",
              "name": "title",
              "type": "string"
            },
            {
              "internalType": "string",
              "name": "description",
              "type": "string"
            },
            {
              "internalType": "enum NewsFeed.State",
              "name": "news_state",
              "type": "uint8"
            },
            {
              "internalType": "uint256",
              "name": "upvotes",
              "type": "uint256"
            },
            {
              "internalType": "address[]",
              "name": "upvotes_address",
              "type": "address[]"
            },
            {
              "internalType": "uint256",
              "name": "downvotes",
              "type": "uint256"
            },
            {
              "internalType": "address[]",
              "name": "downvotes_address",
              "type": "address[]"
            },
            {
              "internalType": "address[]",
              "name": "reporters",
              "type": "address[]"
            }
          ],
          "internalType": "struct NewsFeed.News",
          "name": "",
          "type": "tuple"
        }
      ],
      "stateMutability": "payable",
      "type": "function",
      "payable": true
    },
    {
      "inputs": [
        {
          "internalType": "uint256",
          "name": "_index",
          "type": "uint256"
        }
      ],
      "name": "report",
      "outputs": [],
      "stateMutability": "payable",
      "type": "function",
      "payable": true
    },
    {
      "inputs": [
        {
          "internalType": "uint256",
          "name": "_index",
          "type": "uint256"
        }
      ],
      "name": "addUpvote",
      "outputs": [],
      "stateMutability": "nonpayable",
      "type": "function"
    },
    {
      "inputs": [
        {
          "internalType": "uint256",
          "name": "_index",
          "type": "uint256"
        }
      ],
      "name": "addDownvote",
      "outputs": [],
      "stateMutability": "nonpayable",
      "type": "function"
    }
  ],
  "bytecode": "0x6080604052600080553480156200001557600080fd5b50604051620022933803806200229383398181016040526200003b9190810190620000db565b33600360006101000a81548173ffffffffffffffffffffffffffffffffffffffff021916908373ffffffffffffffffffffffffffffffffffffffff16021790555080600860006101000a81548173ffffffffffffffffffffffffffffffffffffffff021916908373ffffffffffffffffffffffffffffffffffffffff1602179055505062000169565b600081519050620000d5816200014f565b92915050565b600060208284031215620000ee57600080fd5b6000620000fe84828501620000c4565b91505092915050565b600062000114826200012f565b9050919050565b6000620001288262000107565b9050919050565b600073ffffffffffffffffffffffffffffffffffffffff82169050919050565b6200015a816200011b565b81146200016657600080fd5b50565b61211a80620001796000396000f3fe60806040526004361061007b5760003560e01c80639981d6d31161004e5780639981d6d31461010c578063dbadb1d114610137578063e4f6517614610162578063f1de9ea4146101925761007b565b806301c609071461008057806302d05d3f146100a957806380ec938e146100d4578063969b1cdb146100f0575b600080fd5b34801561008c57600080fd5b506100a760048036036100a29190810190611b78565b6101bb565b005b3480156100b557600080fd5b506100be6104a6565b6040516100cb9190611e29565b60405180910390f35b6100ee60048036036100e99190810190611b0c565b6104cc565b005b61010a60048036036101059190810190611b78565b610889565b005b34801561011857600080fd5b50610121610af5565b60405161012e9190611eb1565b60405180910390f35b34801561014357600080fd5b5061014c610afb565b6040516101599190611e6d565b60405180910390f35b61017c60048036036101779190810190611b78565b610be4565b6040516101899190611e8f565b60405180910390f35b34801561019e57600080fd5b506101b960048036036101b49190810190611b78565b6110da565b005b600860009054906101000a900473ffffffffffffffffffffffffffffffffffffffff1673ffffffffffffffffffffffffffffffffffffffff166397728f81336001600281111561020757fe5b6040518363ffffffff1660e01b8152600401610224929190611e44565b60206040518083038186803b15801561023c57600080fd5b505afa158015610250573d6000803e3d6000fd5b505050506040513d601f19601f820116820180604052506102749190810190611ae3565b61027d57600080fd5b60016000828152602001908152602001600020600801339080600181540180825580915050600190039060005260206000200160009091909190916101000a81548173ffffffffffffffffffffffffffffffffffffffff021916908373ffffffffffffffffffffffffffffffffffffffff1602179055506001600082815260200190815260200160002060070160008154809291906001019190505550600460003373ffffffffffffffffffffffffffffffffffffffff1673ffffffffffffffffffffffffffffffffffffffff1681526020019081526020016000206000808201600090556001820160006101000a81549073ffffffffffffffffffffffffffffffffffffffff021916905560028201600061039991906116bd565b6003820160006103a991906116bd565b6004820160006101000a81549060ff021916905560058201600090556006820160006103d59190611705565b60078201600090556008820160006103ed9190611705565b6009820160006103fd9190611705565b50506005339080600181540180825580915050600190039060005260206000200160009091909190916101000a81548173ffffffffffffffffffffffffffffffffffffffff021916908373ffffffffffffffffffffffffffffffffffffffff1602179055506003600160008381526020019081526020016000206007015460016000848152602001908152602001600020600501540114156104a3576104a2816113c5565b5b50565b600360009054906101000a900473ffffffffffffffffffffffffffffffffffffffff1681565b600860009054906101000a900473ffffffffffffffffffffffffffffffffffffffff1673ffffffffffffffffffffffffffffffffffffffff166397728f813360028081111561051757fe5b6040518363ffffffff1660e01b8152600401610534929190611e44565b60206040518083038186803b15801561054c57600080fd5b505afa158015610560573d6000803e3d6000fd5b505050506040513d601f19601f820116820180604052506105849190810190611ae3565b61058d57600080fd5b600234101561059b57600080fd5b600080815480929190600101919050555060405180610140016040528060005481526020013373ffffffffffffffffffffffffffffffffffffffff168152602001838152602001828152602001600060028111156105f557fe5b81526020016000815260200160006040519080825280602002602001820160405280156106315781602001602082028038833980820191505090505b50815260200160008152602001600060405190808252806020026020018201604052801561066e5781602001602082028038833980820191505090505b50815260200160006040519080825280602002602001820160405280156106a45781602001602082028038833980820191505090505b5081525060016000805481526020019081526020016000206000820151816000015560208201518160010160006101000a81548173ffffffffffffffffffffffffffffffffffffffff021916908373ffffffffffffffffffffffffffffffffffffffff1602179055506040820151816002019080519060200190610729929190611726565b506060820151816003019080519060200190610746929190611726565b5060808201518160040160006101000a81548160ff0219169083600281111561076b57fe5b021790555060a0820151816005015560c08201518160060190805190602001906107969291906117a6565b5060e082015181600701556101008201518160080190805190602001906107be9291906117a6565b506101208201518160090190805190602001906107dc9291906117a6565b5090505060028290806001815401808255809150506001900390600052602060002001600090919091909150908051906020019061081b929190611830565b50600360009054906101000a900473ffffffffffffffffffffffffffffffffffffffff1673ffffffffffffffffffffffffffffffffffffffff166108fc349081150290604051600060405180830381858888f19350505050158015610884573d6000803e3d6000fd5b505050565b600860009054906101000a900473ffffffffffffffffffffffffffffffffffffffff1673ffffffffffffffffffffffffffffffffffffffff166397728f8133600060028111156108d557fe5b6040518363ffffffff1660e01b81526004016108f2929190611e44565b60206040518083038186803b15801561090a57600080fd5b505afa15801561091e573d6000803e3d6000fd5b505050506040513d601f19601f820116820180604052506109429190810190611ae3565b61094b57600080fd5b6000600281111561095857fe5b6001600083815260200190815260200160002060040160009054906101000a900460ff16600281111561098757fe5b1461099157610af2565b60016000828152602001908152602001600020600901339080600181540180825580915050600190039060005260206000200160009091909190916101000a81548173ffffffffffffffffffffffffffffffffffffffff021916908373ffffffffffffffffffffffffffffffffffffffff1602179055506005600160008381526020019081526020016000206009018054905010610a3357610a3281611471565b5b34600760003373ffffffffffffffffffffffffffffffffffffffff1673ffffffffffffffffffffffffffffffffffffffff168152602001908152602001600020600083815260200190815260200160002081905550600360009054906101000a900473ffffffffffffffffffffffffffffffffffffffff1673ffffffffffffffffffffffffffffffffffffffff166108fc349081150290604051600060405180830381858888f19350505050158015610af0573d6000803e3d6000fd5b505b50565b60005481565b60606002805480602002602001604051908101604052809291908181526020016000905b82821015610bdb578382906000526020600020018054600181600116156101000203166002900480601f016020809104026020016040519081016040528092919081815260200182805460018160011615610100020316600290048015610bc75780601f10610b9c57610100808354040283529160200191610bc7565b820191906000526020600020905b815481529060010190602001808311610baa57829003601f168201915b505050505081526020019060010190610b1f565b50505050905090565b610bec6118b0565b600860009054906101000a900473ffffffffffffffffffffffffffffffffffffffff1673ffffffffffffffffffffffffffffffffffffffff166397728f813360006002811115610c3857fe5b6040518363ffffffff1660e01b8152600401610c55929190611e44565b60206040518083038186803b158015610c6d57600080fd5b505afa158015610c81573d6000803e3d6000fd5b505050506040513d601f19601f82011682018060405250610ca59190810190611ae3565b610cae57600080fd5b6001341015610cbc57600080fd5b600360009054906101000a900473ffffffffffffffffffffffffffffffffffffffff1673ffffffffffffffffffffffffffffffffffffffff166108fc349081150290604051600060405180830381858888f19350505050158015610d24573d6000803e3d6000fd5b506001600083815260200190815260200160002060405180610140016040529081600082015481526020016001820160009054906101000a900473ffffffffffffffffffffffffffffffffffffffff1673ffffffffffffffffffffffffffffffffffffffff1673ffffffffffffffffffffffffffffffffffffffff168152602001600282018054600181600116156101000203166002900480601f016020809104026020016040519081016040528092919081815260200182805460018160011615610100020316600290048015610e3d5780601f10610e1257610100808354040283529160200191610e3d565b820191906000526020600020905b815481529060010190602001808311610e2057829003601f168201915b50505050508152602001600382018054600181600116156101000203166002900480601f016020809104026020016040519081016040528092919081815260200182805460018160011615610100020316600290048015610edf5780601f10610eb457610100808354040283529160200191610edf565b820191906000526020600020905b815481529060010190602001808311610ec257829003601f168201915b505050505081526020016004820160009054906101000a900460ff166002811115610f0657fe5b6002811115610f1157fe5b81526020016005820154815260200160068201805480602002602001604051908101604052809291908181526020018280548015610fa457602002820191906000526020600020905b8160009054906101000a900473ffffffffffffffffffffffffffffffffffffffff1673ffffffffffffffffffffffffffffffffffffffff1681526020019060010190808311610f5a575b50505050508152602001600782015481526020016008820180548060200260200160405190810160405280929190818152602001828054801561103c57602002820191906000526020600020905b8160009054906101000a900473ffffffffffffffffffffffffffffffffffffffff1673ffffffffffffffffffffffffffffffffffffffff1681526020019060010190808311610ff2575b50505050508152602001600982018054806020026020016040519081016040528092919081815260200182805480156110ca57602002820191906000526020600020905b8160009054906101000a900473ffffffffffffffffffffffffffffffffffffffff1673ffffffffffffffffffffffffffffffffffffffff1681526020019060010190808311611080575b5050505050815250509050919050565b600860009054906101000a900473ffffffffffffffffffffffffffffffffffffffff1673ffffffffffffffffffffffffffffffffffffffff166397728f81336001600281111561112657fe5b6040518363ffffffff1660e01b8152600401611143929190611e44565b60206040518083038186803b15801561115b57600080fd5b505afa15801561116f573d6000803e3d6000fd5b505050506040513d601f19601f820116820180604052506111939190810190611ae3565b61119c57600080fd5b60016000828152602001908152602001600020600601339080600181540180825580915050600190039060005260206000200160009091909190916101000a81548173ffffffffffffffffffffffffffffffffffffffff021916908373ffffffffffffffffffffffffffffffffffffffff1602179055506001600082815260200190815260200160002060050160008154809291906001019190505550600460003373ffffffffffffffffffffffffffffffffffffffff1673ffffffffffffffffffffffffffffffffffffffff1681526020019081526020016000206000808201600090556001820160006101000a81549073ffffffffffffffffffffffffffffffffffffffff02191690556002820160006112b891906116bd565b6003820160006112c891906116bd565b6004820160006101000a81549060ff021916905560058201600090556006820160006112f49190611705565b600782016000905560088201600061130c9190611705565b60098201600061131c9190611705565b50506005339080600181540180825580915050600190039060005260206000200160009091909190916101000a81548173ffffffffffffffffffffffffffffffffffffffff021916908373ffffffffffffffffffffffffffffffffffffffff1602179055506003600160008381526020019081526020016000206007015460016000848152602001908152602001600020600501540114156113c2576113c1816113c5565b5b50565b6001600082815260200190815260200160002060070154600160008381526020019081526020016000206005015411156114365760026001600083815260200190815260200160002060040160006101000a81548160ff0219169083600281111561142c57fe5b021790555061146e565b600180600083815260200190815260200160002060040160006101000a81548160ff0219169083600281111561146857fe5b02179055505b50565b6000600390505b60008111156116b957600060056001600580549050038154811061149857fe5b9060005260206000200160009054906101000a900473ffffffffffffffffffffffffffffffffffffffff16905060058054806114d057fe5b6001900381819060005260206000200160006101000a81549073ffffffffffffffffffffffffffffffffffffffff0219169055905560016000848152602001908152602001600020600460008373ffffffffffffffffffffffffffffffffffffffff1673ffffffffffffffffffffffffffffffffffffffff168152602001908152602001600020600082015481600001556001820160009054906101000a900473ffffffffffffffffffffffffffffffffffffffff168160010160006101000a81548173ffffffffffffffffffffffffffffffffffffffff021916908373ffffffffffffffffffffffffffffffffffffffff160217905550600282018160020190805460018160011615610100020316600290046115ef929190611924565b5060038201816003019080546001816001161561010002031660029004611617929190611924565b506004820160009054906101000a900460ff168160040160006101000a81548160ff0219169083600281111561164957fe5b021790555060058201548160050155600682018160060190805461166e9291906119ab565b5060078201548160070155600882018160080190805461168f9291906119ab565b5060098201816009019080546116a69291906119ab565b5090505081806001900392505050611478565b5050565b50805460018160011615610100020316600290046000825580601f106116e35750611702565b601f01602090049060005260206000209081019061170191906119fd565b5b50565b508054600082559060005260206000209081019061172391906119fd565b50565b828054600181600116156101000203166002900490600052602060002090601f016020900481019282601f1061176757805160ff1916838001178555611795565b82800160010185558215611795579182015b82811115611794578251825591602001919060010190611779565b5b5090506117a291906119fd565b5090565b82805482825590600052602060002090810192821561181f579160200282015b8281111561181e5782518260006101000a81548173ffffffffffffffffffffffffffffffffffffffff021916908373ffffffffffffffffffffffffffffffffffffffff160217905550916020019190600101906117c6565b5b50905061182c9190611a22565b5090565b828054600181600116156101000203166002900490600052602060002090601f016020900481019282601f1061187157805160ff191683800117855561189f565b8280016001018555821561189f579182015b8281111561189e578251825591602001919060010190611883565b5b5090506118ac91906119fd565b5090565b60405180610140016040528060008152602001600073ffffffffffffffffffffffffffffffffffffffff1681526020016060815260200160608152602001600060028111156118fb57fe5b815260200160008152602001606081526020016000815260200160608152602001606081525090565b828054600181600116156101000203166002900490600052602060002090601f016020900481019282601f1061195d578054855561199a565b8280016001018555821561199a57600052602060002091601f016020900482015b8281111561199957825482559160010191906001019061197e565b5b5090506119a791906119fd565b5090565b8280548282559060005260206000209081019282156119ec5760005260206000209182015b828111156119eb5782548255916001019190600101906119d0565b5b5090506119f99190611a22565b5090565b611a1f91905b80821115611a1b576000816000905550600101611a03565b5090565b90565b611a6291905b80821115611a5e57600081816101000a81549073ffffffffffffffffffffffffffffffffffffffff021916905550600101611a28565b5090565b90565b600081519050611a74816120b6565b92915050565b600082601f830112611a8b57600080fd5b8135611a9e611a9982611ef9565b611ecc565b91508082526020830160208301858383011115611aba57600080fd5b611ac5838284612056565b50505092915050565b600081359050611add816120cd565b92915050565b600060208284031215611af557600080fd5b6000611b0384828501611a65565b91505092915050565b60008060408385031215611b1f57600080fd5b600083013567ffffffffffffffff811115611b3957600080fd5b611b4585828601611a7a565b925050602083013567ffffffffffffffff811115611b6257600080fd5b611b6e85828601611a7a565b9150509250929050565b600060208284031215611b8a57600080fd5b6000611b9884828501611ace565b91505092915050565b6000611bad8383611bdc565b60208301905092915050565b6000611bc58383611cdc565b905092915050565b611bd68161200e565b82525050565b611be581611fb3565b82525050565b611bf481611fb3565b82525050565b6000611c0582611f45565b611c0f8185611f80565b9350611c1a83611f25565b8060005b83811015611c4b578151611c328882611ba1565b9750611c3d83611f66565b925050600181019050611c1e565b5085935050505092915050565b6000611c6382611f50565b611c6d8185611f91565b935083602082028501611c7f85611f35565b8060005b85811015611cbb5784840389528151611c9c8582611bb9565b9450611ca783611f73565b925060208a01995050600181019050611c83565b50829750879550505050505092915050565b611cd681612020565b82525050565b6000611ce782611f5b565b611cf18185611fa2565b9350611d01818560208601612065565b611d0a81612098565b840191505092915050565b600061014083016000830151611d2e6000860182611e0b565b506020830151611d416020860182611bdc565b5060408301518482036040860152611d598282611cdc565b91505060608301518482036060860152611d738282611cdc565b9150506080830151611d886080860182611ccd565b5060a0830151611d9b60a0860182611e0b565b5060c083015184820360c0860152611db38282611bfa565b91505060e0830151611dc860e0860182611e0b565b50610100830151848203610100860152611de28282611bfa565b915050610120830151848203610120860152611dfe8282611bfa565b9150508091505092915050565b611e1481612004565b82525050565b611e2381612004565b82525050565b6000602082019050611e3e6000830184611beb565b92915050565b6000604082019050611e596000830185611bcd565b611e666020830184611e1a565b9392505050565b60006020820190508181036000830152611e878184611c58565b905092915050565b60006020820190508181036000830152611ea98184611d15565b905092915050565b6000602082019050611ec66000830184611e1a565b92915050565b6000604051905081810181811067ffffffffffffffff82111715611eef57600080fd5b8060405250919050565b600067ffffffffffffffff821115611f1057600080fd5b601f19601f8301169050602081019050919050565b6000819050602082019050919050565b6000819050602082019050919050565b600081519050919050565b600081519050919050565b600081519050919050565b6000602082019050919050565b6000602082019050919050565b600082825260208201905092915050565b600082825260208201905092915050565b600082825260208201905092915050565b6000611fbe82611fe4565b9050919050565b60008115159050919050565b6000819050611fdf826120a9565b919050565b600073ffffffffffffffffffffffffffffffffffffffff82169050919050565b6000819050919050565b600061201982612032565b9050919050565b600061202b82611fd1565b9050919050565b600061203d82612044565b9050919050565b600061204f82611fe4565b9050919050565b82818337600083830152505050565b60005b83811015612083578082015181840152602081019050612068565b83811115612092576000848401525b50505050565b6000601f19601f8301169050919050565b600381106120b357fe5b50565b6120bf81611fc5565b81146120ca57600080fd5b50565b6120d681612004565b81146120e157600080fd5b5056fea2646970667358221220efce8ec51ff5b1f3a12d3bb97aba270f0286b98a58902cc27059df04959c5e2464736f6c63430006000033",
  "source": "// SPDX-License-Identifier: MIT\r\npragma solidity >=0.4.21 <8.10.0;\r\npragma experimental ABIEncoderV2;\r\n\r\ncontract Accounts {\r\n    address public creator;\r\n    mapping(address => mapping(uint => bool)) accountRoles;\r\n    enum Role { Reader, Validator, Publisher }\r\n    address[] freeValidators;\r\n\r\n    constructor() public {\r\n        creator = msg.sender;\r\n    }\r\n\r\n    function accountAddRole(address account, uint role) public { //adds specified role to account\r\n        require(\r\n            msg.sender == creator\r\n        );\r\n        accountRoles[account][role] = true;\r\n\r\n        if(role == uint(Role.Validator)) {\r\n            freeValidators.push(account);\r\n        }\r\n    }\r\n\r\n    function accountHasRole(address account, uint role) public view returns (bool) { //checks whether account has specified role\r\n        return accountRoles[account][role];\r\n    }\r\n}\r\n\r\n\r\ncontract NewsFeed\r\n{\r\n    uint256 constant reportThreshold=5; //if no. of reports reaches this, validtors will be assigned\r\n    uint256 constant validatorCount=3; //no. of validators assigned to each news article for validation\r\n    uint256 constant publishingCost=2; //cost to publish an article on the app\r\n    uint256 constant readingCost=1; //cost to read an article\r\n\r\n    uint256 public newsCount=0;\r\n    enum State { Unverified, Fake, Verified }\r\n    mapping(uint256=>News) news_feed;\r\n    string[] articleTitles; //stores only titles, for showing feed\r\n    address public creator;\r\n    mapping(address => News) assignedArticle; //stores mapping of what articles is assigned to each validator at a given moment\r\n    address[] freeValidators; //list of validators who are idle\r\n    address[] articleStake;\r\n    mapping(address => mapping(uint => uint)) readerStake; //stores amount reader stakes on an article\r\n    Accounts accContract;\r\n\r\n\r\n    struct News {\r\n        uint256 id;\r\n        address publisher;\r\n        string title;\r\n        string description;\r\n        State news_state;\r\n        uint256 upvotes;\r\n        address[]  upvotes_address;\r\n        uint256 downvotes;\r\n        address[] downvotes_address;\r\n        address[] reporters;\r\n    }\r\n\r\n    constructor(Accounts _accContract) public { //called when contract is first created\r\n        creator = msg.sender;\r\n        accContract = _accContract;\r\n    }\r\n\r\n    function addNews (string memory _title, string memory _description) payable public { //adds a news article\r\n        require(\r\n            accContract.accountHasRole(msg.sender, uint(Accounts.Role.Publisher))\r\n        );\r\n        require(\r\n            msg.value >= publishingCost\r\n        );\r\n        newsCount++;\r\n        news_feed[newsCount]=News({\r\n            id: newsCount,\r\n            publisher: msg.sender,\r\n            title: _title,\r\n            news_state: State.Unverified,\r\n            description: _description,\r\n            upvotes: 0,\r\n            downvotes: 0,\r\n            upvotes_address: new address [](0),\r\n            downvotes_address: new address [](0),\r\n            reporters: new address [](0)\r\n        });\r\n        articleTitles.push(_title);\r\n        payable(creator).transfer(msg.value);\r\n    }\r\n\r\n    function getFeed() public returns (string[] memory) {\r\n        return articleTitles;\r\n    }\r\n\r\n    function readNews(uint256 _index) public payable returns (News memory) {\r\n        require(\r\n            accContract.accountHasRole(msg.sender, uint(Accounts.Role.Reader))\r\n        );\r\n        require(\r\n            msg.value >= readingCost\r\n        );\r\n        payable(creator).transfer(msg.value);\r\n        return news_feed[_index];\r\n    }\r\n\r\n    function report(uint256 _index) payable public { //reader reports an article as fake news\r\n        require(\r\n            accContract.accountHasRole(msg.sender, uint(Accounts.Role.Reader))\r\n        );\r\n        if(news_feed[_index].news_state != State.Unverified) return;\r\n\r\n        news_feed[_index].reporters.push(msg.sender);\r\n        if(news_feed[_index].reporters.length >= reportThreshold) {\r\n            assignValidators(_index); //assuming for now there are always enough validators\r\n        }\r\n        readerStake[msg.sender][_index] = msg.value;\r\n        payable(creator).transfer(msg.value);\r\n    }\r\n\r\n\r\n    function assignValidators(uint256 _index) private { //contract assigns validators when enough readers have reported\r\n        uint cnt = validatorCount;\r\n        while(cnt > 0) {\r\n            address currentValidator = freeValidators[freeValidators.length - 1];\r\n            freeValidators.pop();\r\n            assignedArticle[currentValidator] = news_feed[_index];\r\n            cnt--;\r\n        }\r\n    }\r\n\r\n\r\n    function addUpvote(uint256 _index) public { //validator votes as legitmiate news\r\n        require(\r\n            accContract.accountHasRole(msg.sender, uint(Accounts.Role.Validator))\r\n        );\r\n        news_feed[_index].upvotes_address.push(msg.sender);\r\n        news_feed[_index].upvotes++;\r\n\r\n        delete assignedArticle[msg.sender];\r\n        freeValidators.push(msg.sender);\r\n\r\n        if(news_feed[_index].upvotes + news_feed[_index].downvotes == validatorCount) { decideState(_index); }\r\n    }\r\n\r\n    function addDownvote(uint256 _index) public { //validator votes as fake news\r\n        require(\r\n            accContract.accountHasRole(msg.sender, uint(Accounts.Role.Validator))\r\n        );\r\n        news_feed[_index].downvotes_address.push(msg.sender);\r\n        news_feed[_index].downvotes++;\r\n\r\n        delete assignedArticle[msg.sender];\r\n        freeValidators.push(msg.sender);\r\n\r\n        if(news_feed[_index].upvotes + news_feed[_index].downvotes == validatorCount) { decideState(_index); }\r\n    }\r\n\r\n    function decideState(uint256 _index) private { //decides the state once all validators have voted\r\n        if(news_feed[_index].upvotes > news_feed[_index].downvotes) {\r\n            news_feed[_index].news_state = State.Verified;\r\n        }\r\n        else {\r\n            news_feed[_index].news_state = State.Fake;\r\n        }\r\n    }\r\n}\r\n\r\n\r\n",
  "sourcePath": "C:\\Users\\Asus\\Desktop\\Hack36\\Hack36_2022\\contracts\\NewsFeed.sol",
  "compiler": {
    "name": "solc",
    "version": "0.6.0+commit.26b70077.Emscripten.clang"
  },
  "schemaVersion": "3.4.7",
  "updatedAt": "2022-04-23T11:32:55.175Z",
  "networkType": "ethereum",
  "devdoc": {
    "methods": {}
  },
  "userdoc": {
    "methods": {}
  }
}