{
  "contractName": "NewsFeeds",
  "abi": [
    {
      "constant": true,
      "inputs": [],
      "name": "newsCount",
      "outputs": [
        {
          "internalType": "uint256",
          "name": "",
          "type": "uint256"
        }
      ],
      "payable": false,
      "stateMutability": "view",
      "type": "function"
    },
    {
      "constant": true,
      "inputs": [
        {
          "internalType": "uint256",
          "name": "",
          "type": "uint256"
        }
      ],
      "name": "news_feed",
      "outputs": [
        {
          "internalType": "uint256",
          "name": "id",
          "type": "uint256"
        },
        {
          "internalType": "address",
          "name": "publisher",
          "type": "address"
        },
        {
          "internalType": "string",
          "name": "title",
          "type": "string"
        },
        {
          "internalType": "string",
          "name": "description",
          "type": "string"
        },
        {
          "internalType": "enum NewsFeeds.State",
          "name": "news_state",
          "type": "uint8"
        }
      ],
      "payable": false,
      "stateMutability": "view",
      "type": "function"
    },
    {
      "constant": false,
      "inputs": [
        {
          "internalType": "string",
          "name": "_publisher",
          "type": "string"
        },
        {
          "internalType": "string",
          "name": "_description",
          "type": "string"
        }
      ],
      "name": "addNews",
      "outputs": [],
      "payable": false,
      "stateMutability": "nonpayable",
      "type": "function"
    }
  ],
  "bytecode": "0x60806040526000805534801561001457600080fd5b506106fc806100246000396000f3fe608060405234801561001057600080fd5b50600436106100415760003560e01c806380ec938e146100465780639981d6d314610198578063f30399f3146101b6575b600080fd5b6101966004803603604081101561005c57600080fd5b810190808035906020019064010000000081111561007957600080fd5b82018360208201111561008b57600080fd5b803590602001918460018302840111640100000000831117156100ad57600080fd5b91908080601f016020809104026020016040519081016040528093929190818152602001838380828437600081840152601f19601f8201169050808301925050505050505091929192908035906020019064010000000081111561011057600080fd5b82018360208201111561012257600080fd5b8035906020019184600183028401116401000000008311171561014457600080fd5b91908080601f016020809104026020016040519081016040528093929190818152602001838380828437600081840152601f19601f820116905080830192505050505050509192919290505050610318565b005b6101a061044e565b6040518082815260200191505060405180910390f35b6101e2600480360360208110156101cc57600080fd5b8101908080359060200190929190505050610454565b604051808681526020018573ffffffffffffffffffffffffffffffffffffffff1673ffffffffffffffffffffffffffffffffffffffff168152602001806020018060200184600281111561023257fe5b60ff168152602001838103835286818151815260200191508051906020019080838360005b83811015610272578082015181840152602081019050610257565b50505050905090810190601f16801561029f5780820380516001836020036101000a031916815260200191505b50838103825285818151815260200191508051906020019080838360005b838110156102d85780820151818401526020810190506102bd565b50505050905090810190601f1680156103055780820380516001836020036101000a031916815260200191505b5097505050505050505060405180910390f35b60008081548092919060010191905055506040518060a0016040528060005481526020013373ffffffffffffffffffffffffffffffffffffffff1681526020018381526020018281526020016000600281111561037157fe5b81525060016000805481526020019081526020016000206000820151816000015560208201518160010160006101000a81548173ffffffffffffffffffffffffffffffffffffffff021916908373ffffffffffffffffffffffffffffffffffffffff16021790555060408201518160020190805190602001906103f5929190610622565b506060820151816003019080519060200190610412929190610622565b5060808201518160040160006101000a81548160ff0219169083600281111561043757fe5b021790555090505061044a6000546105e7565b5050565b60005481565b60016020528060005260406000206000915090508060000154908060010160009054906101000a900473ffffffffffffffffffffffffffffffffffffffff1690806002018054600181600116156101000203166002900480601f01602080910402602001604051908101604052809291908181526020018280546001816001161561010002031660029004801561052c5780601f106105015761010080835404028352916020019161052c565b820191906000526020600020905b81548152906001019060200180831161050f57829003601f168201915b505050505090806003018054600181600116156101000203166002900480601f0160208091040260200160405190810160405280929190818152602001828054600181600116156101000203166002900480156105ca5780601f1061059f576101008083540402835291602001916105ca565b820191906000526020600020905b8154815290600101906020018083116105ad57829003601f168201915b5050505050908060040160009054906101000a900460ff16905085565b60026001600083815260200190815260200160002060040160006101000a81548160ff0219169083600281111561061a57fe5b021790555050565b828054600181600116156101000203166002900490600052602060002090601f016020900481019282601f1061066357805160ff1916838001178555610691565b82800160010185558215610691579182015b82811115610690578251825591602001919060010190610675565b5b50905061069e91906106a2565b5090565b6106c491905b808211156106c05760008160009055506001016106a8565b5090565b9056fea265627a7a72315820f2634319f8087dc8f89295a5d4e1af7b7792e15562029d6a88181e647239c35e64736f6c63430005100032",
  "source": "// SPDX-License-Identifier: MIT\npragma solidity >=0.4.21 <8.10.0;\n\ncontract NewsFeeds\n{\n    uint256 public newsCount=0;\n    enum State { Unverified, Fake, Verified }\n    mapping(uint256=>News) public news_feed;\n    struct News{\n        uint256 id;\n        address publisher;\n        string title;\n        string description;\n        State news_state;\n    }\n    function addNews(string memory _publisher,string memory _description) public{\n        newsCount++;\n        news_feed[newsCount]=News(newsCount,msg.sender,_publisher,_description,State.Unverified);\n        changeStateVerify(newsCount);\n    }\n    function changeStateVerify(uint256 _index) private{\n        news_feed[_index].news_state=State.Verified;\n    }\n    function changeStateFake(uint256 _index) private{\n        news_feed[_index].news_state=State.Fake;\n    }\n}",
  "sourcePath": "/Users/siddheshpatil/WebstormProjects/Hack36_2022/contracts/News.sol",
  "compiler": {
    "name": "solc",
    "version": "0.5.16+commit.9c3226ce.Emscripten.clang"
  },
  "schemaVersion": "3.4.7",
  "updatedAt": "2022-04-23T01:19:24.576Z",
  "devdoc": {
    "methods": {}
  },
  "userdoc": {
    "methods": {}
  }
}