{
  "contractName": "NewsFeed",
  "abi": [
    {
      "inputs": [
        {
          "internalType": "contract Accounts",
          "name": "_accContract",
          "type": "address"
        }
      ],
      "stateMutability": "nonpayable",
      "type": "constructor"
    },
    {
      "inputs": [
        {
          "internalType": "address",
          "name": "",
          "type": "address"
        }
      ],
      "name": "assignedArticle",
      "outputs": [
        {
          "internalType": "uint256",
          "name": "id",
          "type": "uint256"
        },
        {
          "internalType": "address",
          "name": "publisher",
          "type": "address"
        },
        {
          "internalType": "string",
          "name": "title",
          "type": "string"
        },
        {
          "internalType": "string",
          "name": "description",
          "type": "string"
        },
        {
          "internalType": "enum NewsFeed.State",
          "name": "news_state",
          "type": "uint8"
        },
        {
          "internalType": "uint256",
          "name": "upvotes",
          "type": "uint256"
        },
        {
          "internalType": "uint256",
          "name": "downvotes",
          "type": "uint256"
        }
      ],
      "stateMutability": "view",
      "type": "function"
    },
    {
      "inputs": [],
      "name": "creator",
      "outputs": [
        {
          "internalType": "address",
          "name": "",
          "type": "address"
        }
      ],
      "stateMutability": "view",
      "type": "function"
    },
    {
      "inputs": [],
      "name": "newsCount",
      "outputs": [
        {
          "internalType": "uint256",
          "name": "",
          "type": "uint256"
        }
      ],
      "stateMutability": "view",
      "type": "function"
    },
    {
      "inputs": [
        {
          "internalType": "uint256",
          "name": "",
          "type": "uint256"
        }
      ],
      "name": "news_feed",
      "outputs": [
        {
          "internalType": "uint256",
          "name": "id",
          "type": "uint256"
        },
        {
          "internalType": "address",
          "name": "publisher",
          "type": "address"
        },
        {
          "internalType": "string",
          "name": "title",
          "type": "string"
        },
        {
          "internalType": "string",
          "name": "description",
          "type": "string"
        },
        {
          "internalType": "enum NewsFeed.State",
          "name": "news_state",
          "type": "uint8"
        },
        {
          "internalType": "uint256",
          "name": "upvotes",
          "type": "uint256"
        },
        {
          "internalType": "uint256",
          "name": "downvotes",
          "type": "uint256"
        }
      ],
      "stateMutability": "view",
      "type": "function"
    },
    {
      "inputs": [
        {
          "internalType": "string",
          "name": "_title",
          "type": "string"
        },
        {
          "internalType": "string",
          "name": "_description",
          "type": "string"
        }
      ],
      "name": "addNews",
      "outputs": [],
      "stateMutability": "payable",
      "type": "function"
    },
    {
      "inputs": [],
      "name": "getFeed",
      "outputs": [
        {
          "internalType": "string[]",
          "name": "",
          "type": "string[]"
        }
      ],
      "stateMutability": "nonpayable",
      "type": "function"
    },
    {
      "inputs": [
        {
          "internalType": "uint256",
          "name": "_index",
          "type": "uint256"
        }
      ],
      "name": "readNews",
      "outputs": [
        {
          "components": [
            {
              "internalType": "uint256",
              "name": "id",
              "type": "uint256"
            },
            {
              "internalType": "address",
              "name": "publisher",
              "type": "address"
            },
            {
              "internalType": "string",
              "name": "title",
              "type": "string"
            },
            {
              "internalType": "string",
              "name": "description",
              "type": "string"
            },
            {
              "internalType": "enum NewsFeed.State",
              "name": "news_state",
              "type": "uint8"
            },
            {
              "internalType": "uint256",
              "name": "upvotes",
              "type": "uint256"
            },
            {
              "internalType": "address[]",
              "name": "upvotes_address",
              "type": "address[]"
            },
            {
              "internalType": "uint256",
              "name": "downvotes",
              "type": "uint256"
            },
            {
              "internalType": "address[]",
              "name": "downvotes_address",
              "type": "address[]"
            },
            {
              "internalType": "address[]",
              "name": "reporters",
              "type": "address[]"
            }
          ],
          "internalType": "struct NewsFeed.News",
          "name": "",
          "type": "tuple"
        }
      ],
      "stateMutability": "payable",
      "type": "function"
    },
    {
      "inputs": [
        {
          "internalType": "uint256",
          "name": "_index",
          "type": "uint256"
        }
      ],
      "name": "report",
      "outputs": [],
      "stateMutability": "payable",
      "type": "function"
    },
    {
      "inputs": [
        {
          "internalType": "address",
          "name": "acc",
          "type": "address"
        },
        {
          "internalType": "uint256",
          "name": "_index",
          "type": "uint256"
        }
      ],
      "name": "asvalid",
      "outputs": [],
      "stateMutability": "nonpayable",
      "type": "function"
    },
    {
      "inputs": [
        {
          "internalType": "uint256",
          "name": "_index",
          "type": "uint256"
        }
      ],
      "name": "addUpvote",
      "outputs": [],
      "stateMutability": "nonpayable",
      "type": "function"
    },
    {
      "inputs": [
        {
          "internalType": "uint256",
          "name": "_index",
          "type": "uint256"
        }
      ],
      "name": "addDownvote",
      "outputs": [],
      "stateMutability": "nonpayable",
      "type": "function"
    }
  ],
  "bytecode": "0x6080604052600080553480156200001557600080fd5b5060405162002b3438038062002b3483398181016040526200003b9190810190620000db565b33600360006101000a81548173ffffffffffffffffffffffffffffffffffffffff021916908373ffffffffffffffffffffffffffffffffffffffff16021790555080600860006101000a81548173ffffffffffffffffffffffffffffffffffffffff021916908373ffffffffffffffffffffffffffffffffffffffff1602179055505062000169565b600081519050620000d5816200014f565b92915050565b600060208284031215620000ee57600080fd5b6000620000fe84828501620000c4565b91505092915050565b600062000114826200012f565b9050919050565b6000620001288262000107565b9050919050565b600073ffffffffffffffffffffffffffffffffffffffff82169050919050565b6200015a816200011b565b81146200016657600080fd5b50565b6129bb80620001796000396000f3fe60806040526004361061009c5760003560e01c80639981d6d3116100645780639981d6d314610170578063a4a5da681461019b578063dbadb1d1146101c4578063e4f65176146101ef578063f1de9ea41461021f578063f30399f3146102485761009c565b806301c60907146100a157806302d05d3f146100ca5780631ae00f8f146100f557806380ec938e14610138578063969b1cdb14610154575b600080fd5b3480156100ad57600080fd5b506100c860048036036100c3919081019061226c565b61028b565b005b3480156100d657600080fd5b506100df610576565b6040516100ec91906125e5565b60405180910390f35b34801561010157600080fd5b5061011c60048036036101179190810190612172565b61059c565b60405161012f97969594939291906126c8565b60405180910390f35b610152600480360361014d9190810190612200565b61073b565b005b61016e6004803603610169919081019061226c565b610b02565b005b34801561017c57600080fd5b50610185610d05565b60405161019291906126ad565b60405180910390f35b3480156101a757600080fd5b506101c260048036036101bd919081019061219b565b610d0b565b005b3480156101d057600080fd5b506101d9610eb4565b6040516101e69190612629565b60405180910390f35b6102096004803603610204919081019061226c565b610f9d565b604051610216919061268b565b60405180910390f35b34801561022b57600080fd5b506102466004803603610241919081019061226c565b611430565b005b34801561025457600080fd5b5061026f600480360361026a919081019061226c565b61171b565b60405161028297969594939291906126c8565b60405180910390f35b600860009054906101000a900473ffffffffffffffffffffffffffffffffffffffff1673ffffffffffffffffffffffffffffffffffffffff166397728f8133600160028111156102d757fe5b6040518363ffffffff1660e01b81526004016102f4929190612600565b60206040518083038186803b15801561030c57600080fd5b505afa158015610320573d6000803e3d6000fd5b505050506040513d601f19601f8201168201806040525061034491908101906121d7565b61034d57600080fd5b60016000828152602001908152602001600020600801339080600181540180825580915050600190039060005260206000200160009091909190916101000a81548173ffffffffffffffffffffffffffffffffffffffff021916908373ffffffffffffffffffffffffffffffffffffffff1602179055506001600082815260200190815260200160002060070160008154809291906001019190505550600460003373ffffffffffffffffffffffffffffffffffffffff1673ffffffffffffffffffffffffffffffffffffffff1681526020019081526020016000206000808201600090556001820160006101000a81549073ffffffffffffffffffffffffffffffffffffffff02191690556002820160006104699190611d37565b6003820160006104799190611d37565b6004820160006101000a81549060ff021916905560058201600090556006820160006104a59190611d7f565b60078201600090556008820160006104bd9190611d7f565b6009820160006104cd9190611d7f565b50506005339080600181540180825580915050600190039060005260206000200160009091909190916101000a81548173ffffffffffffffffffffffffffffffffffffffff021916908373ffffffffffffffffffffffffffffffffffffffff16021790555060036001600083815260200190815260200160002060070154600160008481526020019081526020016000206005015401141561057357610572816118ba565b5b50565b600360009054906101000a900473ffffffffffffffffffffffffffffffffffffffff1681565b60046020528060005260406000206000915090508060000154908060010160009054906101000a900473ffffffffffffffffffffffffffffffffffffffff1690806002018054600181600116156101000203166002900480601f0160208091040260200160405190810160405280929190818152602001828054600181600116156101000203166002900480156106745780601f1061064957610100808354040283529160200191610674565b820191906000526020600020905b81548152906001019060200180831161065757829003601f168201915b505050505090806003018054600181600116156101000203166002900480601f0160208091040260200160405190810160405280929190818152602001828054600181600116156101000203166002900480156107125780601f106106e757610100808354040283529160200191610712565b820191906000526020600020905b8154815290600101906020018083116106f557829003601f168201915b5050505050908060040160009054906101000a900460ff16908060050154908060070154905087565b600860009054906101000a900473ffffffffffffffffffffffffffffffffffffffff1673ffffffffffffffffffffffffffffffffffffffff166397728f813360028081111561078657fe5b6040518363ffffffff1660e01b81526004016107a3929190612600565b60206040518083038186803b1580156107bb57600080fd5b505afa1580156107cf573d6000803e3d6000fd5b505050506040513d601f19601f820116820180604052506107f391908101906121d7565b610832576040517f08c379a00000000000000000000000000000000000000000000000000000000081526004016108299061264b565b60405180910390fd5b6706f05b59d3b2000034101561087d576040517f08c379a00000000000000000000000000000000000000000000000000000000081526004016108749061266b565b60405180910390fd5b600080815480929190600101919050555060405180610140016040528060005481526020013373ffffffffffffffffffffffffffffffffffffffff168152602001838152602001828152602001600060028111156108d757fe5b81526020016000815260200160006040519080825280602002602001820160405280156109135781602001602082028038833980820191505090505b5081526020016000815260200160006040519080825280602002602001820160405280156109505781602001602082028038833980820191505090505b50815260200160006040519080825280602002602001820160405280156109865781602001602082028038833980820191505090505b5081525060016000805481526020019081526020016000206000820151816000015560208201518160010160006101000a81548173ffffffffffffffffffffffffffffffffffffffff021916908373ffffffffffffffffffffffffffffffffffffffff1602179055506040820151816002019080519060200190610a0b929190611da0565b506060820151816003019080519060200190610a28929190611da0565b5060808201518160040160006101000a81548160ff02191690836002811115610a4d57fe5b021790555060a0820151816005015560c0820151816006019080519060200190610a78929190611e20565b5060e08201518160070155610100820151816008019080519060200190610aa0929190611e20565b50610120820151816009019080519060200190610abe929190611e20565b50905050600282908060018154018082558091505060019003906000526020600020016000909190919091509080519060200190610afd929190611eaa565b505050565b600860009054906101000a900473ffffffffffffffffffffffffffffffffffffffff1673ffffffffffffffffffffffffffffffffffffffff166397728f813360006002811115610b4e57fe5b6040518363ffffffff1660e01b8152600401610b6b929190612600565b60206040518083038186803b158015610b8357600080fd5b505afa158015610b97573d6000803e3d6000fd5b505050506040513d601f19601f82011682018060405250610bbb91908101906121d7565b610bc457600080fd5b60006002811115610bd157fe5b6001600083815260200190815260200160002060040160009054906101000a900460ff166002811115610c0057fe5b14610c0a57610d02565b60016000828152602001908152602001600020600901339080600181540180825580915050600190039060005260206000200160009091909190916101000a81548173ffffffffffffffffffffffffffffffffffffffff021916908373ffffffffffffffffffffffffffffffffffffffff1602179055506005600160008381526020019081526020016000206009018054905010610cac57610cab81611aeb565b5b34600760003373ffffffffffffffffffffffffffffffffffffffff1673ffffffffffffffffffffffffffffffffffffffff1681526020019081526020016000206000838152602001908152602001600020819055505b50565b60005481565b60016000828152602001908152602001600020600460008473ffffffffffffffffffffffffffffffffffffffff1673ffffffffffffffffffffffffffffffffffffffff168152602001908152602001600020600082015481600001556001820160009054906101000a900473ffffffffffffffffffffffffffffffffffffffff168160010160006101000a81548173ffffffffffffffffffffffffffffffffffffffff021916908373ffffffffffffffffffffffffffffffffffffffff16021790555060028201816002019080546001816001161561010002031660029004610df5929190611f2a565b5060038201816003019080546001816001161561010002031660029004610e1d929190611f2a565b506004820160009054906101000a900460ff168160040160006101000a81548160ff02191690836002811115610e4f57fe5b0217905550600582015481600501556006820181600601908054610e74929190611fb1565b50600782015481600701556008820181600801908054610e95929190611fb1565b506009820181600901908054610eac929190611fb1565b509050505050565b60606002805480602002602001604051908101604052809291908181526020016000905b82821015610f94578382906000526020600020018054600181600116156101000203166002900480601f016020809104026020016040519081016040528092919081815260200182805460018160011615610100020316600290048015610f805780601f10610f5557610100808354040283529160200191610f80565b820191906000526020600020905b815481529060010190602001808311610f6357829003601f168201915b505050505081526020019060010190610ed8565b50505050905090565b610fa5612003565b600860009054906101000a900473ffffffffffffffffffffffffffffffffffffffff1673ffffffffffffffffffffffffffffffffffffffff166397728f813360006002811115610ff157fe5b6040518363ffffffff1660e01b815260040161100e929190612600565b60206040518083038186803b15801561102657600080fd5b505afa15801561103a573d6000803e3d6000fd5b505050506040513d601f19601f8201168201806040525061105e91908101906121d7565b61106757600080fd5b662386f26fc1000034101561107b57600080fd5b6001600083815260200190815260200160002060405180610140016040529081600082015481526020016001820160009054906101000a900473ffffffffffffffffffffffffffffffffffffffff1673ffffffffffffffffffffffffffffffffffffffff1673ffffffffffffffffffffffffffffffffffffffff168152602001600282018054600181600116156101000203166002900480601f0160208091040260200160405190810160405280929190818152602001828054600181600116156101000203166002900480156111935780601f1061116857610100808354040283529160200191611193565b820191906000526020600020905b81548152906001019060200180831161117657829003601f168201915b50505050508152602001600382018054600181600116156101000203166002900480601f0160208091040260200160405190810160405280929190818152602001828054600181600116156101000203166002900480156112355780601f1061120a57610100808354040283529160200191611235565b820191906000526020600020905b81548152906001019060200180831161121857829003601f168201915b505050505081526020016004820160009054906101000a900460ff16600281111561125c57fe5b600281111561126757fe5b815260200160058201548152602001600682018054806020026020016040519081016040528092919081815260200182805480156112fa57602002820191906000526020600020905b8160009054906101000a900473ffffffffffffffffffffffffffffffffffffffff1673ffffffffffffffffffffffffffffffffffffffff16815260200190600101908083116112b0575b50505050508152602001600782015481526020016008820180548060200260200160405190810160405280929190818152602001828054801561139257602002820191906000526020600020905b8160009054906101000a900473ffffffffffffffffffffffffffffffffffffffff1673ffffffffffffffffffffffffffffffffffffffff1681526020019060010190808311611348575b505050505081526020016009820180548060200260200160405190810160405280929190818152602001828054801561142057602002820191906000526020600020905b8160009054906101000a900473ffffffffffffffffffffffffffffffffffffffff1673ffffffffffffffffffffffffffffffffffffffff16815260200190600101908083116113d6575b5050505050815250509050919050565b600860009054906101000a900473ffffffffffffffffffffffffffffffffffffffff1673ffffffffffffffffffffffffffffffffffffffff166397728f81336001600281111561147c57fe5b6040518363ffffffff1660e01b8152600401611499929190612600565b60206040518083038186803b1580156114b157600080fd5b505afa1580156114c5573d6000803e3d6000fd5b505050506040513d601f19601f820116820180604052506114e991908101906121d7565b6114f257600080fd5b60016000828152602001908152602001600020600601339080600181540180825580915050600190039060005260206000200160009091909190916101000a81548173ffffffffffffffffffffffffffffffffffffffff021916908373ffffffffffffffffffffffffffffffffffffffff1602179055506001600082815260200190815260200160002060050160008154809291906001019190505550600460003373ffffffffffffffffffffffffffffffffffffffff1673ffffffffffffffffffffffffffffffffffffffff1681526020019081526020016000206000808201600090556001820160006101000a81549073ffffffffffffffffffffffffffffffffffffffff021916905560028201600061160e9190611d37565b60038201600061161e9190611d37565b6004820160006101000a81549060ff0219169055600582016000905560068201600061164a9190611d7f565b60078201600090556008820160006116629190611d7f565b6009820160006116729190611d7f565b50506005339080600181540180825580915050600190039060005260206000200160009091909190916101000a81548173ffffffffffffffffffffffffffffffffffffffff021916908373ffffffffffffffffffffffffffffffffffffffff16021790555060036001600083815260200190815260200160002060070154600160008481526020019081526020016000206005015401141561171857611717816118ba565b5b50565b60016020528060005260406000206000915090508060000154908060010160009054906101000a900473ffffffffffffffffffffffffffffffffffffffff1690806002018054600181600116156101000203166002900480601f0160208091040260200160405190810160405280929190818152602001828054600181600116156101000203166002900480156117f35780601f106117c8576101008083540402835291602001916117f3565b820191906000526020600020905b8154815290600101906020018083116117d657829003601f168201915b505050505090806003018054600181600116156101000203166002900480601f0160208091040260200160405190810160405280929190818152602001828054600181600116156101000203166002900480156118915780601f1061186657610100808354040283529160200191611891565b820191906000526020600020905b81548152906001019060200180831161187457829003601f168201915b5050505050908060040160009054906101000a900460ff16908060050154908060070154905087565b6001600082815260200190815260200160002060070154600160008381526020019081526020016000206005015411156119d15760026001600083815260200190815260200160002060040160006101000a81548160ff0219169083600281111561192157fe5b0217905550600067016345785d8a000060016000848152602001908152602001600020600901805490500290506001600083815260200190815260200160002060010160009054906101000a900473ffffffffffffffffffffffffffffffffffffffff1673ffffffffffffffffffffffffffffffffffffffff166108fc829081150290604051600060405180830381858888f193505050501580156119ca573d6000803e3d6000fd5b5050611ae8565b600180600083815260200190815260200160002060040160006101000a81548160ff02191690836002811115611a0357fe5b0217905550600060056706f05b59d3b2000081611a1c57fe5b04905060008090505b6001600084815260200190815260200160002060090180549050811015611ae557600160008481526020019081526020016000206009018181548110611a6757fe5b9060005260206000200160009054906101000a900473ffffffffffffffffffffffffffffffffffffffff1673ffffffffffffffffffffffffffffffffffffffff166108fc839081150290604051600060405180830381858888f19350505050158015611ad7573d6000803e3d6000fd5b508080600101915050611a25565b50505b50565b6000600390505b6000811115611d33576000600560016005805490500381548110611b1257fe5b9060005260206000200160009054906101000a900473ffffffffffffffffffffffffffffffffffffffff1690506005805480611b4a57fe5b6001900381819060005260206000200160006101000a81549073ffffffffffffffffffffffffffffffffffffffff0219169055905560016000848152602001908152602001600020600460008373ffffffffffffffffffffffffffffffffffffffff1673ffffffffffffffffffffffffffffffffffffffff168152602001908152602001600020600082015481600001556001820160009054906101000a900473ffffffffffffffffffffffffffffffffffffffff168160010160006101000a81548173ffffffffffffffffffffffffffffffffffffffff021916908373ffffffffffffffffffffffffffffffffffffffff16021790555060028201816002019080546001816001161561010002031660029004611c69929190611f2a565b5060038201816003019080546001816001161561010002031660029004611c91929190611f2a565b506004820160009054906101000a900460ff168160040160006101000a81548160ff02191690836002811115611cc357fe5b0217905550600582015481600501556006820181600601908054611ce8929190611fb1565b50600782015481600701556008820181600801908054611d09929190611fb1565b506009820181600901908054611d20929190611fb1565b5090505081806001900392505050611af2565b5050565b50805460018160011615610100020316600290046000825580601f10611d5d5750611d7c565b601f016020900490600052602060002090810190611d7b9190612077565b5b50565b5080546000825590600052602060002090810190611d9d9190612077565b50565b828054600181600116156101000203166002900490600052602060002090601f016020900481019282601f10611de157805160ff1916838001178555611e0f565b82800160010185558215611e0f579182015b82811115611e0e578251825591602001919060010190611df3565b5b509050611e1c9190612077565b5090565b828054828255906000526020600020908101928215611e99579160200282015b82811115611e985782518260006101000a81548173ffffffffffffffffffffffffffffffffffffffff021916908373ffffffffffffffffffffffffffffffffffffffff16021790555091602001919060010190611e40565b5b509050611ea6919061209c565b5090565b828054600181600116156101000203166002900490600052602060002090601f016020900481019282601f10611eeb57805160ff1916838001178555611f19565b82800160010185558215611f19579182015b82811115611f18578251825591602001919060010190611efd565b5b509050611f269190612077565b5090565b828054600181600116156101000203166002900490600052602060002090601f016020900481019282601f10611f635780548555611fa0565b82800160010185558215611fa057600052602060002091601f016020900482015b82811115611f9f578254825591600101919060010190611f84565b5b509050611fad9190612077565b5090565b828054828255906000526020600020908101928215611ff25760005260206000209182015b82811115611ff1578254825591600101919060010190611fd6565b5b509050611fff919061209c565b5090565b60405180610140016040528060008152602001600073ffffffffffffffffffffffffffffffffffffffff16815260200160608152602001606081526020016000600281111561204e57fe5b815260200160008152602001606081526020016000815260200160608152602001606081525090565b61209991905b8082111561209557600081600090555060010161207d565b5090565b90565b6120dc91905b808211156120d857600081816101000a81549073ffffffffffffffffffffffffffffffffffffffff0219169055506001016120a2565b5090565b90565b6000813590506120ee81612940565b92915050565b60008151905061210381612957565b92915050565b600082601f83011261211a57600080fd5b813561212d61212882612772565b612745565b9150808252602083016020830185838301111561214957600080fd5b6121548382846128e0565b50505092915050565b60008135905061216c8161296e565b92915050565b60006020828403121561218457600080fd5b6000612192848285016120df565b91505092915050565b600080604083850312156121ae57600080fd5b60006121bc858286016120df565b92505060206121cd8582860161215d565b9150509250929050565b6000602082840312156121e957600080fd5b60006121f7848285016120f4565b91505092915050565b6000806040838503121561221357600080fd5b600083013567ffffffffffffffff81111561222d57600080fd5b61223985828601612109565b925050602083013567ffffffffffffffff81111561225657600080fd5b61226285828601612109565b9150509250929050565b60006020828403121561227e57600080fd5b600061228c8482850161215d565b91505092915050565b60006122a183836122d0565b60208301905092915050565b60006122b983836123df565b905092915050565b6122ca81612898565b82525050565b6122d98161283d565b82525050565b6122e88161283d565b82525050565b60006122f9826127be565b61230381856127f9565b935061230e8361279e565b8060005b8381101561233f5781516123268882612295565b9750612331836127df565b925050600181019050612312565b5085935050505092915050565b6000612357826127c9565b612361818561280a565b935083602082028501612373856127ae565b8060005b858110156123af578484038952815161239085826122ad565b945061239b836127ec565b925060208a01995050600181019050612377565b50829750879550505050505092915050565b6123ca816128aa565b82525050565b6123d9816128aa565b82525050565b60006123ea826127d4565b6123f4818561281b565b93506124048185602086016128ef565b61240d81612922565b840191505092915050565b6000612423826127d4565b61242d818561282c565b935061243d8185602086016128ef565b61244681612922565b840191505092915050565b600061245e600d8361282c565b91507f746869732069732077726f6e67000000000000000000000000000000000000006000830152602082019050919050565b600061249e600f8361282c565b91507f636f6e646974696f6e206661696c7300000000000000000000000000000000006000830152602082019050919050565b6000610140830160008301516124ea60008601826125c7565b5060208301516124fd60208601826122d0565b506040830151848203604086015261251582826123df565b9150506060830151848203606086015261252f82826123df565b915050608083015161254460808601826123c1565b5060a083015161255760a08601826125c7565b5060c083015184820360c086015261256f82826122ee565b91505060e083015161258460e08601826125c7565b5061010083015184820361010086015261259e82826122ee565b9150506101208301518482036101208601526125ba82826122ee565b9150508091505092915050565b6125d08161288e565b82525050565b6125df8161288e565b82525050565b60006020820190506125fa60008301846122df565b92915050565b600060408201905061261560008301856122c1565b61262260208301846125d6565b9392505050565b60006020820190508181036000830152612643818461234c565b905092915050565b6000602082019050818103600083015261266481612451565b9050919050565b6000602082019050818103600083015261268481612491565b9050919050565b600060208201905081810360008301526126a581846124d1565b905092915050565b60006020820190506126c260008301846125d6565b92915050565b600060e0820190506126dd600083018a6125d6565b6126ea60208301896122df565b81810360408301526126fc8188612418565b905081810360608301526127108187612418565b905061271f60808301866123d0565b61272c60a08301856125d6565b61273960c08301846125d6565b98975050505050505050565b6000604051905081810181811067ffffffffffffffff8211171561276857600080fd5b8060405250919050565b600067ffffffffffffffff82111561278957600080fd5b601f19601f8301169050602081019050919050565b6000819050602082019050919050565b6000819050602082019050919050565b600081519050919050565b600081519050919050565b600081519050919050565b6000602082019050919050565b6000602082019050919050565b600082825260208201905092915050565b600082825260208201905092915050565b600082825260208201905092915050565b600082825260208201905092915050565b60006128488261286e565b9050919050565b60008115159050919050565b600081905061286982612933565b919050565b600073ffffffffffffffffffffffffffffffffffffffff82169050919050565b6000819050919050565b60006128a3826128bc565b9050919050565b60006128b58261285b565b9050919050565b60006128c7826128ce565b9050919050565b60006128d98261286e565b9050919050565b82818337600083830152505050565b60005b8381101561290d5780820151818401526020810190506128f2565b8381111561291c576000848401525b50505050565b6000601f19601f8301169050919050565b6003811061293d57fe5b50565b6129498161283d565b811461295457600080fd5b50565b6129608161284f565b811461296b57600080fd5b50565b6129778161288e565b811461298257600080fd5b5056fea26469706673582212200ad1dec9937ba988d61d4f3993dc175f94b5ff91dd37d916c077996a487b36a464736f6c63430006000033",
  "source": "// SPDX-License-Identifier: MIT\r\npragma solidity >=0.4.21 <8.10.0;\r\npragma experimental ABIEncoderV2;\r\n\r\ncontract Accounts {\r\n    address public creator;\r\n    mapping(address => mapping(uint => bool)) accountRoles;\r\n    enum Role { Reader, Validator, Publisher }\r\n    address[] freeValidators;\r\n\r\n    constructor() public {\r\n        creator = msg.sender;\r\n    }\r\n\r\n    function accountAddRole(address account, uint role) public { //adds specified role to account\r\n        require(\r\n            msg.sender == creator\r\n        );\r\n        accountRoles[account][role] = true;\r\n\r\n        if(role == uint(Role.Validator)) {\r\n            freeValidators.push(account);\r\n        }\r\n    }\r\n\r\n    function accountHasRole(address account, uint role) public view returns (bool) { //checks whether account has specified role\r\n        return accountRoles[account][role];\r\n    }\r\n}\r\n\r\n\r\ncontract NewsFeed\r\n{\r\n    uint256 constant reportThreshold=5; //if no. of reports reaches this, validtors will be assigned\r\n    uint256 constant validatorCount=3; //no. of validators assigned to each news article for validation\r\n    uint256 constant publishingCost = 500000000000000000 wei; //0.5 ether, cost to publish an article on the app\r\n    uint256 constant readingCost = 10000000000000000 wei; //0.01 ether, cost to read an article\r\n    uint256 constant reportStake = 100000000000000000 wei; //0.1 ether, amount reader stakes to report an article\r\n\r\n    uint256 public newsCount=0;\r\n    enum State { Unverified, Fake, Verified }\r\n    mapping(uint256=>News) public news_feed;\r\n    string[] articleTitles; //stores only titles, for showing feed\r\n    address public creator;\r\n    mapping(address => News) public assignedArticle; //stores mapping of what articles is assigned to each validator at a given moment\r\n    address[] freeValidators; //list of validators who are idle\r\n    address[] articleStake;\r\n    mapping(address => mapping(uint => uint)) readerStake; //stores amount reader stakes on an article\r\n    Accounts accContract;\r\n\r\n\r\n    struct News {\r\n        uint256 id;\r\n        address publisher;\r\n        string title;\r\n        string description;\r\n        State news_state;\r\n        uint256 upvotes;\r\n        address[]  upvotes_address;\r\n        uint256 downvotes;\r\n        address[] downvotes_address;\r\n        address[] reporters;\r\n    }\r\n\r\n    constructor(Accounts _accContract) public { //called when contract is first created\r\n        creator = msg.sender;\r\n        accContract = _accContract;\r\n    }\r\n\r\n    function addNews (string memory _title, string memory _description) payable public { //adds a news article\r\n        require(\r\n            accContract.accountHasRole(msg.sender, uint(Accounts.Role.Publisher)),\"this is wrong\"\r\n        );\r\n        require(\r\n            msg.value >= publishingCost, \"condition fails\"\r\n        );\r\n        newsCount++;\r\n        news_feed[newsCount]=News({\r\n            id: newsCount,\r\n            publisher: msg.sender,\r\n            title: _title,\r\n            news_state: State.Unverified,\r\n            description: _description,\r\n            upvotes: 0,\r\n            downvotes: 0,\r\n            upvotes_address: new address [](0),\r\n            downvotes_address: new address [](0),\r\n            reporters: new address [](0)\r\n        });\r\n        articleTitles.push(_title);\r\n        // payable(creator).transfer(msg.value);\r\n    }\r\n\r\n    function getFeed() public returns (string[] memory) {\r\n        return articleTitles;\r\n    }\r\n\r\n    function readNews(uint256 _index) public payable returns (News memory) {\r\n        require(\r\n            accContract.accountHasRole(msg.sender, uint(Accounts.Role.Reader))\r\n        );\r\n        require(\r\n            msg.value >= readingCost\r\n        );\r\n        return news_feed[_index];\r\n    }\r\n\r\n    function report(uint256 _index) payable public { //reader reports an article as fake news\r\n        require(\r\n            accContract.accountHasRole(msg.sender, uint(Accounts.Role.Reader))\r\n        );\r\n        if(news_feed[_index].news_state != State.Unverified) return;\r\n\r\n        news_feed[_index].reporters.push(msg.sender);\r\n        if(news_feed[_index].reporters.length >= reportThreshold) {\r\n            assignValidators(_index); //assuming for now there are always enough validators\r\n        }\r\n        readerStake[msg.sender][_index] = msg.value;\r\n    }\r\n\r\n    function asvalid(address acc,uint _index) public {\r\n        assignedArticle[acc]=news_feed[_index];\r\n    }\r\n\r\n    function assignValidators(uint256 _index) private { //contract assigns validators when enough readers have reported\r\n        uint cnt = validatorCount;\r\n        while(cnt > 0) {\r\n            address currentValidator = freeValidators[freeValidators.length - 1];\r\n            freeValidators.pop();\r\n            assignedArticle[currentValidator] = news_feed[_index];\r\n            cnt--;\r\n        }\r\n    }\r\n\r\n\r\n    function addUpvote(uint256 _index) public { //validator votes as legitmiate news\r\n        require(\r\n            accContract.accountHasRole(msg.sender, uint(Accounts.Role.Validator))\r\n        );\r\n        news_feed[_index].upvotes_address.push(msg.sender);\r\n        news_feed[_index].upvotes++;\r\n\r\n        delete assignedArticle[msg.sender];\r\n        freeValidators.push(msg.sender);\r\n\r\n        if(news_feed[_index].upvotes + news_feed[_index].downvotes == validatorCount) { decideState(_index); }\r\n    }\r\n\r\n    function addDownvote(uint256 _index) public { //validator votes as fake news\r\n        require(\r\n            accContract.accountHasRole(msg.sender, uint(Accounts.Role.Validator))\r\n        );\r\n        news_feed[_index].downvotes_address.push(msg.sender);\r\n        news_feed[_index].downvotes++;\r\n\r\n        delete assignedArticle[msg.sender];\r\n        freeValidators.push(msg.sender);\r\n\r\n        if(news_feed[_index].upvotes + news_feed[_index].downvotes == validatorCount) { decideState(_index); }\r\n    }\r\n\r\n    function decideState(uint256 _index) private { //decides the state once all validators have voted\r\n        if(news_feed[_index].upvotes > news_feed[_index].downvotes) {\r\n            news_feed[_index].news_state = State.Verified;\r\n\r\n            uint totalStake = news_feed[_index].reporters.length * reportStake;\r\n            payable(news_feed[_index].publisher).transfer(totalStake);\r\n        }\r\n        else {\r\n            news_feed[_index].news_state = State.Fake;\r\n\r\n            uint amtToEachReporter = publishingCost / reportThreshold;\r\n            for(uint i = 0; i < news_feed[_index].reporters.length; i++) {\r\n                payable(news_feed[_index].reporters[i]).transfer(amtToEachReporter);\r\n            }\r\n        }\r\n    }\r\n}\r\n\r\n",
  "sourcePath": "C:\\Users\\leolo\\OneDrive\\Desktop\\hack36\\contracts\\NewsFeed.sol",
  "compiler": {
    "name": "solc",
    "version": "0.6.0+commit.26b70077.Emscripten.clang"
  },
  "schemaVersion": "3.4.7",
  "updatedAt": "2022-04-24T03:16:59.916Z",
  "devdoc": {
    "methods": {}
  },
  "userdoc": {
    "methods": {}
  }
}