{
  "contractName": "NewsFeed",
  "abi": [
    {
      "inputs": [],
      "payable": false,
      "stateMutability": "nonpayable",
      "type": "constructor"
    },
    {
      "constant": true,
      "inputs": [],
      "name": "creator",
      "outputs": [
        {
          "internalType": "address",
          "name": "",
          "type": "address"
        }
      ],
      "payable": false,
      "stateMutability": "view",
      "type": "function"
    },
    {
      "constant": true,
      "inputs": [],
      "name": "newsCount",
      "outputs": [
        {
          "internalType": "uint256",
          "name": "",
          "type": "uint256"
        }
      ],
      "payable": false,
      "stateMutability": "view",
      "type": "function"
    },
    {
      "constant": true,
      "inputs": [
        {
          "internalType": "uint256",
          "name": "",
          "type": "uint256"
        }
      ],
      "name": "news_feed",
      "outputs": [
        {
          "internalType": "uint256",
          "name": "id",
          "type": "uint256"
        },
        {
          "internalType": "address",
          "name": "publisher",
          "type": "address"
        },
        {
          "internalType": "string",
          "name": "title",
          "type": "string"
        },
        {
          "internalType": "string",
          "name": "description",
          "type": "string"
        },
        {
          "internalType": "enum NewsFeed.State",
          "name": "news_state",
          "type": "uint8"
        },
        {
          "internalType": "uint256",
          "name": "upvotes",
          "type": "uint256"
        },
        {
          "internalType": "uint256",
          "name": "downvotes",
          "type": "uint256"
        },
        {
          "internalType": "uint256",
          "name": "reportCount",
          "type": "uint256"
        }
      ],
      "payable": false,
      "stateMutability": "view",
      "type": "function"
    },
    {
      "constant": false,
      "inputs": [
        {
          "internalType": "string",
          "name": "_title",
          "type": "string"
        },
        {
          "internalType": "string",
          "name": "_description",
          "type": "string"
        }
      ],
      "name": "addNews",
      "outputs": [],
      "payable": false,
      "stateMutability": "nonpayable",
      "type": "function"
    },
    {
      "constant": false,
      "inputs": [
        {
          "internalType": "uint256",
          "name": "_index",
          "type": "uint256"
        }
      ],
      "name": "report",
      "outputs": [],
      "payable": false,
      "stateMutability": "nonpayable",
      "type": "function"
    }
  ],
  "bytecode": "0x60806040526000805534801561001457600080fd5b5033600360006101000a81548173ffffffffffffffffffffffffffffffffffffffff021916908373ffffffffffffffffffffffffffffffffffffffff160217905550610d71806100656000396000f3fe608060405234801561001057600080fd5b50600436106100575760003560e01c806302d05d3f1461005c57806380ec938e146100a6578063969b1cdb146101f85780639981d6d314610226578063f30399f314610244575b600080fd5b6100646103bb565b604051808273ffffffffffffffffffffffffffffffffffffffff1673ffffffffffffffffffffffffffffffffffffffff16815260200191505060405180910390f35b6101f6600480360360408110156100bc57600080fd5b81019080803590602001906401000000008111156100d957600080fd5b8201836020820111156100eb57600080fd5b8035906020019184600183028401116401000000008311171561010d57600080fd5b91908080601f016020809104026020016040519081016040528093929190818152602001838380828437600081840152601f19601f8201169050808301925050505050505091929192908035906020019064010000000081111561017057600080fd5b82018360208201111561018257600080fd5b803590602001918460018302840111640100000000831117156101a457600080fd5b91908080601f016020809104026020016040519081016040528093929190818152602001838380828437600081840152601f19601f8201169050808301925050505050505091929192905050506103e1565b005b6102246004803603602081101561020e57600080fd5b81019080803590602001909291905050506105e8565b005b61022e610694565b6040518082815260200191505060405180910390f35b6102706004803603602081101561025a57600080fd5b810190808035906020019092919050505061069a565b604051808981526020018873ffffffffffffffffffffffffffffffffffffffff1673ffffffffffffffffffffffffffffffffffffffff16815260200180602001806020018760028111156102c057fe5b60ff168152602001868152602001858152602001848152602001838103835289818151815260200191508051906020019080838360005b838110156103125780820151818401526020810190506102f7565b50505050905090810190601f16801561033f5780820380516001836020036101000a031916815260200191505b50838103825288818151815260200191508051906020019080838360005b8381101561037857808201518184015260208101905061035d565b50505050905090810190601f1680156103a55780820380516001836020036101000a031916815260200191505b509a505050505050505050505060405180910390f35b600360009054906101000a900473ffffffffffffffffffffffffffffffffffffffff1681565b600080815480929190600101919050555060405180610140016040528060005481526020013373ffffffffffffffffffffffffffffffffffffffff1681526020018381526020018281526020016000600281111561043b57fe5b81526020016000815260200160006040519080825280602002602001820160405280156104775781602001602082028038833980820191505090505b5081526020016000815260200160006040519080825280602002602001820160405280156104b45781602001602082028038833980820191505090505b508152602001600081525060016000805481526020019081526020016000206000820151816000015560208201518160010160006101000a81548173ffffffffffffffffffffffffffffffffffffffff021916908373ffffffffffffffffffffffffffffffffffffffff1602179055506040820151816002019080519060200190610540929190610af1565b50606082015181600301908051906020019061055d929190610af1565b5060808201518160040160006101000a81548160ff0219169083600281111561058257fe5b021790555060a0820151816005015560c08201518160060190805190602001906105ad929190610b71565b5060e082015181600701556101008201518160080190805190602001906105d5929190610b71565b5061012082015181600901559050505050565b6105f333600061083f565b6105fc57600080fd5b6000600281111561060957fe5b6001600083815260200190815260200160002060040160009054906101000a900460ff16600281111561063857fe5b1461064257610691565b600160008281526020019081526020016000206009016000815480929190600101919050555060056001600083815260200190815260200160002060090154106106905761068f816108b2565b5b5b50565b60005481565b60016020528060005260406000206000915090508060000154908060010160009054906101000a900473ffffffffffffffffffffffffffffffffffffffff1690806002018054600181600116156101000203166002900480601f0160208091040260200160405190810160405280929190818152602001828054600181600116156101000203166002900480156107725780601f1061074757610100808354040283529160200191610772565b820191906000526020600020905b81548152906001019060200180831161075557829003601f168201915b505050505090806003018054600181600116156101000203166002900480601f0160208091040260200160405190810160405280929190818152602001828054600181600116156101000203166002900480156108105780601f106107e557610100808354040283529160200191610810565b820191906000526020600020905b8154815290600101906020018083116107f357829003601f168201915b5050505050908060040160009054906101000a900460ff16908060050154908060070154908060090154905088565b6000600260008473ffffffffffffffffffffffffffffffffffffffff1673ffffffffffffffffffffffffffffffffffffffff168152602001908152602001600020600083600281111561088e57fe5b815260200190815260200160002060009054906101000a900460ff16905092915050565b6000600390505b6000811115610aed5760006005600160058054905003815481106108d957fe5b9060005260206000200160009054906101000a900473ffffffffffffffffffffffffffffffffffffffff169050600580548061091157fe5b6001900381819060005260206000200160006101000a81549073ffffffffffffffffffffffffffffffffffffffff0219169055905560016000848152602001908152602001600020600460008373ffffffffffffffffffffffffffffffffffffffff1673ffffffffffffffffffffffffffffffffffffffff168152602001908152602001600020600082015481600001556001820160009054906101000a900473ffffffffffffffffffffffffffffffffffffffff168160010160006101000a81548173ffffffffffffffffffffffffffffffffffffffff021916908373ffffffffffffffffffffffffffffffffffffffff16021790555060028201816002019080546001816001161561010002031660029004610a30929190610bfb565b5060038201816003019080546001816001161561010002031660029004610a58929190610bfb565b506004820160009054906101000a900460ff168160040160006101000a81548160ff02191690836002811115610a8a57fe5b0217905550600582015481600501556006820181600601908054610aaf929190610c82565b50600782015481600701556008820181600801908054610ad0929190610c82565b5060098201548160090155905050818060019003925050506108b9565b5050565b828054600181600116156101000203166002900490600052602060002090601f016020900481019282601f10610b3257805160ff1916838001178555610b60565b82800160010185558215610b60579182015b82811115610b5f578251825591602001919060010190610b44565b5b509050610b6d9190610cd4565b5090565b828054828255906000526020600020908101928215610bea579160200282015b82811115610be95782518260006101000a81548173ffffffffffffffffffffffffffffffffffffffff021916908373ffffffffffffffffffffffffffffffffffffffff16021790555091602001919060010190610b91565b5b509050610bf79190610cf9565b5090565b828054600181600116156101000203166002900490600052602060002090601f016020900481019282601f10610c345780548555610c71565b82800160010185558215610c7157600052602060002091601f016020900482015b82811115610c70578254825591600101919060010190610c55565b5b509050610c7e9190610cd4565b5090565b828054828255906000526020600020908101928215610cc35760005260206000209182015b82811115610cc2578254825591600101919060010190610ca7565b5b509050610cd09190610cf9565b5090565b610cf691905b80821115610cf2576000816000905550600101610cda565b5090565b90565b610d3991905b80821115610d3557600081816101000a81549073ffffffffffffffffffffffffffffffffffffffff021916905550600101610cff565b5090565b9056fea265627a7a72315820c0493981b2522a8aa4a074afa72d76b01c98f7fdc4096d02cdf40ec5b26811d564736f6c63430005100032",
  "source": "// SPDX-License-Identifier: MIT\r\npragma solidity >=0.4.21 <8.10.0;\r\n\r\ncontract NewsFeed\r\n{   \r\n    uint256 constant reportThreshold=5; //if no. of reports reaches this, validtors will be assigned\r\n    uint256 constant validatorCount=3; //no. of validators assigned to each news article for validation\r\n\r\n    uint256 public newsCount=0;\r\n    enum State { Unverified, Fake, Verified }\r\n    enum Role { Reader, Validator, Publisher }\r\n    mapping(uint256=>News) public news_feed;\r\n    mapping(address => mapping(uint => bool)) accountRoles;\r\n    address public creator;\r\n    mapping(address => News) assignedArticle; //stores mapping of what articles is assigned to each validator at a given moment\r\n    address[] freeValidators; //list of validators who have are idle\r\n    \r\n    function accountAddRole(address account, Role role) internal { //adds specified role to account\r\n        require(\r\n            msg.sender == creator\r\n        );\r\n        accountRoles[account][uint(role)] = true;\r\n\r\n        if(role == Role.Validator) {\r\n            freeValidators.push(account);\r\n        }\r\n    }\r\n\r\n    function accountHasRole(address account, Role role) internal \r\n    view returns (bool) { //checks whether account has specified role\r\n        return accountRoles[account][uint(role)];\r\n    }\r\n\r\n    struct News{\r\n        uint256 id;\r\n        address publisher;\r\n        string title;\r\n        string description;\r\n        State news_state;\r\n        uint256 upvotes;\r\n        address[]  upvotes_address;\r\n        uint256 downvotes;\r\n        address[] downvotes_address;\r\n        uint256 reportCount;\r\n    }\r\n\r\n    constructor() public { //called when contract is first created\r\n        creator = msg.sender;\r\n    }\r\n\r\n    function addNews(string memory _title,string memory _description) public { //adds a news article\r\n        newsCount++;\r\n        news_feed[newsCount]=News({\r\n            id:newsCount,\r\n            publisher:msg.sender,\r\n            title:_title,\r\n            news_state:State.Unverified,\r\n            description: _description,\r\n            upvotes:0,\r\n            downvotes:0,\r\n            upvotes_address:new address [](0),\r\n            downvotes_address:new address [](0),\r\n            reportCount:0\r\n        });\r\n    }\r\n\r\n    function decideState(uint256 _index) private { //decides the state once all validators have voted\r\n        if(news_feed[_index].upvotes > news_feed[_index].downvotes) {\r\n            news_feed[_index].news_state = State.Verified;\r\n        }\r\n        else {\r\n            news_feed[_index].news_state = State.Fake;\r\n        }\r\n    }\r\n\r\n\r\n    function report(uint256 _index) public { //reader reports an article as fake news\r\n        require(\r\n            accountHasRole(msg.sender, Role.Reader)\r\n        );\r\n        if(news_feed[_index].news_state != State.Unverified) return;\r\n\r\n        news_feed[_index].reportCount++;\r\n        if(news_feed[_index].reportCount >= reportThreshold) {\r\n            assignValidators(_index);\r\n        }\r\n    }\r\n\r\n    function assignValidators(uint256 _index) private { //contract assigns validators when enough readers have reported\r\n        uint cnt = validatorCount;\r\n        while(cnt > 0) {\r\n            address currentValidator = freeValidators[freeValidators.length - 1];\r\n            freeValidators.pop();\r\n            assignedArticle[currentValidator] = news_feed[_index];\r\n            cnt--;\r\n        }\r\n    }\r\n     \r\n\r\n    function addUpvote(uint256 _index) private { //validator votes as legitmiate news\r\n        require(\r\n            accountHasRole(msg.sender, Role.Validator)\r\n        );\r\n        news_feed[_index].upvotes_address.push(msg.sender);\r\n        news_feed[_index].upvotes++;\r\n    }\r\n\r\n    function addDownvote(uint256 _index) private { //validator votes as fake news\r\n        require(\r\n            accountHasRole(msg.sender, Role.Validator)\r\n        );\r\n        news_feed[_index].downvotes_address.push(msg.sender);\r\n        news_feed[_index].downvotes++;\r\n    }\r\n}",
  "sourcePath": "C:\\Users\\leolo\\OneDrive\\Desktop\\hack36\\contracts\\NewsFeed.sol",
  "compiler": {
    "name": "solc",
    "version": "0.5.16+commit.9c3226ce.Emscripten.clang"
  },
  "schemaVersion": "3.4.7",
  "updatedAt": "2022-04-22T18:27:08.624Z",
  "devdoc": {
    "methods": {}
  },
  "userdoc": {
    "methods": {}
  }
}